:020000040800F2
:1040000050F10020A14200082DAB0008558B00089C
:10401000B1A90008B9540008791701080000000090
:10402000000000000000000000000000B342000893
:10403000915C000800000000314300088104010881
:10404000BB420008BB420008BB420008BB4200085C
:10405000BB420008BB420008BB420008BB4200084C
:10406000BB420008BB420008BB420008BB4200083C
:10407000BB420008BB420008BB420008BB4200082C
:10408000BB420008BB420008BB420008BB4200081C
:10409000BB420008BB420008BB420008BB4200080C
:1040A000BB420008BB420008BB420008BB420008FC
:1040B000BB420008FD040108BB420008BB420008E7
:1040C000BB420008BB420008BB420008BB420008DC
:1040D000BB4200089D080108F5080108BB42000822
:1040E000BB420008BB420008BB420008BB420008BC
:1040F000BB420008BB420008BB420008BB420008AC
:10410000BB420008BB420008BB420008BB4200089B
:1041100065070108CD070108BB420008BB42000843
:10412000BB420008BB420008BB420008BB4200087B
:10413000BB420008296C0008BB420008BB420008D3
:10414000BB420008BB420008BB420008BB4200085B
:10415000BB420008BB420008BB420008BB4200084B
:10416000BB420008BB420008BB420008BB4200083B
:10417000BB420008BB420008BB420008BB4200082B
:10418000BB420008BB42000800F002F800F070F8E3
:104190000AA090E8000C82448344AAF10107DA45A2
:1041A00001D100F065F8AFF2090EBAE80F0013F084
:1041B000010F18BFFB1A43F00103184734870100B1
:1041C000548701000A444FF0000C10F8013B13F033
:1041D000070408BF10F8014B1D1108BF10F8015B60
:1041E000641E05D010F8016B641E01F8016BF9D153
:1041F00013F0080F1EBF10F8014BAD1C0C1B09D1AA
:104200006D1E58BF01F801CBFAD505E014F8016B1B
:1042100001F8016B6D1EF9D59142D6D370470000AD
:104220000023002400250026103A28BF78C1FBD8BF
:10423000520728BF30C148BF0B607047642900F0A7
:104240005381782900F08C81732900F0FA840020D2
:1042500070471FB518F028F800F0ECFB04000020B0
:10426000002118F00BF8401C60601FBD10B510BD98
:1042700000F09BFD1146FFF7ECFF10F083FC00F00F
:10428000B9FD03B4FFF7F2FF03BC0DF03EFB0000E5
:1042900030BF72B6704762B6704780F308887047C7
:1042A0000948804709480047FEE7FEE7FEE7FEE7CA
:1042B000FEE7FEE7FEE7FEE7FEE7FEE70448054906
:1042C000054A064B70470000A10401088941000817
:1042D00050EB002050F1002050ED002050ED002068
:1042E000EFF3108072B6704780F310887047264C49
:1042F0004FF6FF7525604FF0000484F30988234CC6
:104300004FF001052570224C4FF08055256062B6B4
:10431000FEE730B41E4C4FF08055256030BC70472E
:1043200030B41B4C4FF08055256030BC704700BF47
:1043300072B6EFF3098050B11EF0100F08BF20EDE8
:10434000108A203880E8F00F12490968086000B52B
:10435000114880475DF804EB104811490A78027053
:104360000C4810490A680260106890E8F00F20308D
:104370001EF0100F08BFB0EC108A80F309884EF0D1
:10438000040E62B6704700BF22ED00E083020020F9
:1043900004ED00E09C02002011BD00088002002016
:1043A00081020020A40200207047000010B500F038
:1043B00041FB001D10BD00BFC57E010010B54C10B3
:1043C00084EA530404D54042C1F1000138BF491EBC
:1043D0001B4204D55242C3F1000338BF5B1E00F0FC
:1043E00031FB14F0804F04D04042C1F1000138BFCE
:1043F000491E14F0004F04D05242C3F1000338BFED
:104400005B1E10BD0FB4044910B503AA029800F05A
:104410001DFC10BC5DF814FBD00100200FB41CB5CE
:10442000084B06AA7B4469460090059800F0DFFB24
:1044300004460020694600F0EDFB20461CBC5DF8F8
:1044400014FB0000ED07000070B5044685690068A4
:10445000C10601D5302600E02026C00707D070BD78
:10446000D4E9012130469047206A401C20626D1E2D
:10447000F6D570BD70B5044685690078C00707D1D0
:1044800070BDD4E9012120209047206A401C2062A1
:104490006D1EF6D570BD70B50C460546012A05D0D7
:1044A0002878800600D5EA69002302E0012305E0B0
:1044B0005B1C934202D2E05C0028F9D1A869E6189F
:1044C000C01AA861286A184428622846FFF7BCFF72
:1044D00004E0D5E9012114F8010B9047B442F8D368
:1044E0002846FFF7C7FF70BD2DE9F04106460024BE
:1044F00010687529314616A510D0AFF3008000284A
:1045000002DA404213A507E031688A0701D512A5F7
:1045100002E0490704D511A5012401E0AFF30080B2
:1045200000210A2206F1240709E0B0FBF2FCB0FBEF
:10453000F2F302FB1C00303078541846491C002866
:10454000F3D123462A463046BDE8F04100F0F1BAE7
:10455000000000002D0000002B00000020000000E3
:1045600070B504460D4621461068AFF300802188DF
:10457000090502D50F4A7A4402E00E4A7A440E3207
:10458000002104F1240305E000F00F060009965D08
:104590005E54491C0028F7D120780023000704D579
:1045A000702D02D009B1022311322046BDE87040BF
:1045B00000F0BFBA118101002DE9F05F8946044681
:1045C0004FF0000ADFF874B1FB44C0F820A0204689
:1045D000E1688847002874D0252806D0D4E9012155
:1045E0009047206A401C2062F1E700265F46204683
:1045F000E16888472028054607DB312D05D2781968
:1046000010F8200C08B10643F1E7B00701D526F0F9
:104610000406C4F81CA00027C4F818A02A2D09D04D
:1046200028460DF06BF938B304EB8708303DC8F825
:10463000185019E059F8041B204604EB87029161D9
:10464000E1688847012F054618D1E069002820DA83
:1046500026F020061DE0D8F8180000EB800005EBDE
:1046600040003038C8F818002046E1688847054601
:104670000DF044F90028EED1012F0AD02E2D08D1DB
:104680002046E16888477F1C0546022F46F0200639
:10469000C4DBA069002803DA404246F00106A061AD
:1046A000F00701D026F010066C2D0BD0682D09D034
:1046B0004C2D39D06A2D35D0742D35D07A2D33D08C
:1046C00016E038E0E1682F4620468847B8420546A4
:1046D00009D16C2F26D04FF48060E1680643204654
:1046E0008847054604E06C2F1AD04FF480700643CB
:1046F0000DB3A5F14100192802D8203546F4006613
:104700004A462946204626604E46FFF797FD80B16F
:1047100001280BD0F61D26F0070000F1080956E726
:104720004020E4E78020D8E70020D6E706F104091E
:104730004DE7284652E7206ABDE8F09FE780010078
:1047400070B5064600F07AF90468054630460A223C
:10475000002100F09BFA2C6070BD401ECAB210F818
:10476000011F8A4202D00029F9D10020704740EA97
:10477000010310B59B070FD1042A0DD310C808C937
:10478000121F9C42F8D020BA19BA884201D90120E0
:1047900010BD4FF0FF3010BD1AB1D30703D0521C2B
:1047A00007E0002010BD10F8013B11F8014B1B1B66
:1047B00007D110F8013B11F8014B1B1B01D1921ED0
:1047C000F1D1184610BD10B5431C02E010F8011BD2
:1047D00071B18107FAD14FF0013202C88C1A8C43B3
:1047E00014EAC211F9D0C01A0A0603D0C01E10BDC7
:1047F000C01A10BD0A0401D0801E10BD0902FCD0F1
:10480000401E10BD421E12F8013F002BFBD111F8D3
:10481000013B002B02F8013BF9D17047032A40F21B
:10482000308010F0030C00F0158011F8013BBCF152
:10483000020F624498BF11F801CB00F8013B38BF6A
:1048400011F8013BA2F1040298BF00F801CB38BF78
:1048500000F8013B11F0030300F02580083AC0F096
:10486000088051F8043B083A51F804CBA0E808103E
:10487000F5E7121D5CBF51F8043B40F8043BAFF371
:104880000080D20724BF11F8013B11F801CB48BFCB
:1048900011F8012B24BF00F8013B00F801CB48BF01
:1048A00000F8012B704710B5203AC0F00B80B1E83A
:1048B0001850203AA0E81850B1E81850A0E8185055
:1048C000BFF4F5AF5FEA027C24BFB1E81850A0E85E
:1048D000185044BF18C918C0BDE810405FEA827C78
:1048E00024BF51F8043B40F8043B08BF7047D2078F
:1048F00028BF31F8023B48BF11F8012B28BF20F830
:10490000023B48BF00F8012B704702F0FF0343EA67
:10491000032242EA024200F002B84FF000020429EA
:10492000C0F0128010F0030C00F01B80CCF1040CDE
:10493000BCF1020F18BF00F8012BA8BF20F8022B12
:10494000A1EB0C0100F00DB85FEAC17C24BF00F8B8
:10495000012B00F8012B48BF00F8012B70474FF0E6
:10496000000200B5134694469646203922BFA0E8BF
:104970000C50A0E80C50B1F12001BFF4F7AF0907CB
:1049800028BFA0E80C5048BF0CC05DF804EB8900BC
:1049900028BF40F8042B08BF704748BF20F8022BFF
:1049A00011F0804F18BF00F8012B70474FF0013C09
:1049B00050F8042B51F8043B9A4221D1A2EB0C038E
:1049C000934313EACC1317D150F8042B51F8043B4E
:1049D0009A4215D1A2EB0C03934313EACC130BD1EB
:1049E00050F8042B51F8043B9A4209D1A2EB0C0376
:1049F000934313EACC13DBD04FF00000704700BFA5
:104A0000D01A01BAB1FA81F101F0180122FA01F0CD
:104A1000CB40C1F12001DBB2C0B2C01A2CFA01F3C5
:104A2000D11A914311EAC311E6D17047704770471C
:104A300070477047004870470CEB002000487047F3
:104A4000ECEA002053EA020C00F069802DE9F04BFB
:104A50004FF00006002B1FBFB3FA83F503FA05F4ED
:104A600024FA05F65E4012BF1643B2FA82F502FA46
:104A700005F4C5F120051EBF22FA05FC44EA0C042A
:104A8000203556EA044C4FEA144418BF641C4FF01A
:104A900000084FF00009904271EB030C39D3002954
:104AA00019BFB1FA81F701FA07F6B0FA80F700FAF8
:104AB00007F6C7F120071EBF20FA07FC46EA0C06DE
:104AC0002037B6FBF4FCA7EB0507103F07F01F0BE0
:104AD000CBF120060CFA0BFB2CFA06F644BFB346CA
:104AE0000026202FA4BF5E464FF0000B5BEA060CA9
:104AF00008BF4FF0010B19EB0B09ABFB027C48EB35
:104B00000608C01B06FB02CC0BFB03CC71EB0C01AF
:104B1000C1E70B46024641464846BDE8F08B13B557
:104B20004FF000004FF00001AFF30080BDE81C40E3
:104B300070472DE9F0470D4699469246044600F12C
:104B400024080168880604D5E06921F0100121607D
:104B500000E00120A84201DD471B00E00027A16919
:104B60007A1902EB0900081AA0612078C00602D465
:104B70002046FFF769FC002608E0D4E901211AF875
:104B800006009047206A401C761C20624E45F4DBEC
:104B90002078C0060AD52046FFF756FC06E0D4E987
:104BA000012130209047206A401C2062381EA7F166
:104BB0000107F4DC07E0D4E9012118F8050090476B
:104BC000206A401C2062281EA5F10105F3DC204666
:104BD000FFF750FC2078000602D50220BDE8F087E0
:104BE0000120FBE701694A1C02610878704700B5A3
:104BF0008FB0CDE901310021059105497944CDE916
:104C0000031011466846FFF7D7FC0FB000BD000047
:104C1000E5FFFFFF0A6802F8010B0A60704710B554
:104C2000436913B1AFF3008001E0FFF734FC0120CA
:104C300010BD127800F124010A7000224A7001228E
:104C4000EDE711684FF0FF32E9E70000074B70B560
:104C50000D467B44FFF7CBFF0446284600F0A1F841
:104C600010B14FF0FF3070BD204670BD43E9000029
:104C70003A2800D2303820F02002412A01D3A2F194
:104C80003700884201D34FF0FF3070472DE9F047DD
:104C900091460F4680460446002614F8015B2DB16C
:104CA000FFF784FB0068405DC007F6D12B2D02D0D2
:104CB0002D2D18D0641E4A463946204600F022F8B1
:104CC00027B13968A14201D1C7F800804FF0020432
:104CD00071050BD54042002803DDFFF7AFFE0460ED
:104CE000A007BDE8F08746F48066E4E70028F8DA1C
:104CF000FFF7A4FE04606FF00040F2E70048704741
:104D0000ECEA00202DE9F05F824615468B4600272D
:104D10000AF10104B9460078302801D09DB113E0B2
:104D200014F8010B0127782803D0582801D045B189
:104D30000AE00DB1102D07D1002714F8010B102542
:104D400002E0082500E00A250026B0460EE005FB3B
:104D5000080005FB06F101271FFA80F801EB104659
:104D6000B6F5803F00D3B94614F8010B2946FFF78A
:104D70007FFF0028EBDABBF1000F05D00FB1641EF6
:104D800000E05446CBF80040B9F1000F06D0FFF721
:104D900055FE02210160C81EBDE8F09F48EA0640AA
:104DA000FAE7007B00F0800070477546FFF7A6FF2A
:104DB000AE4605006946534620F00700854618B008
:104DC00020B5FFF77BFABDE820404FF000064FF01A
:104DD00000074FF000084FF0000B21F00701AC4630
:104DE000ACE8C009ACE8C009ACE8C009ACE8C0094F
:104DF0008D4670470446AFF300802046FFF741FA26
:104E000070B596B00121324808F0F2FB01210D0285
:104E1000284608F01DFC13A802F026FE022013907D
:104E200003208DF8500000248DF8534013A9294821
:104E300002F0CAFD28482A4ECDE900402748CDE9B6
:104E400002043220CDE90404A8004100CDE90601A6
:104E50000891C001CDE909500125CDE90B450D941C
:104E6000694630460E9400F0E9FE0121304600F01C
:104E7000DBFE00948DF804508DF805508DF8145029
:104E8000154D02944C3D04946946284600F0B6F84E
:104E9000052301220921284600F0D6F80F944FF48B
:104EA00070601094CDE911400FA800F07DF8012149
:104EB000284600F099F80121284600F06BF80121FE
:104EC000284600F087F8284600F0F8F816B070BDC4
:104ED00002004000000402404C2001402842002013
:104EE0001064024070B52A4C6068A06002F0F2FFC6
:104EF00040F6826148434FF47A71B0FBF1F0B43070
:104F000060606068A1686268401A41F288330121DC
:104F10009A4204D2A078607033E0617070BD63681B
:104F200041F658350022AB4201D2022016E06368F8
:104F3000B3F5FA5F07D2002800DA40424B28ECDBD9
:104F4000A078607070BD636842F21075AB420AD2FF
:104F5000002800DA40424B28F2DA03206070227009
:104F60006078A07070BD636842F61405AB42E2D36E
:104F7000606842F63C73984201D20420EEE7607804
:104F8000A0702078401CC0B220700628C5D070BD2B
:104F9000A00100200029816802D041F0010101E058
:104FA00021F0010181607047084B10B5D3F804234C
:104FB00007490A40D0E900142143D0E902400443E4
:104FC00021431143C3F8041310BD00000020014029
:104FD000E030FCFF0029816802D041F4807101E0DB
:104FE00021F48071816070470029816802D041F40A
:104FF000007101E021F400718160704730B54268B2
:105000000F4B0C791A400B6842EA042213434360A9
:1050100082680C4B4D791A40D1E9034323438C68D5
:1050200044EA4504234313438360C26A097D22F4A2
:105030007002491EC9B242EA0151C16230BD00008E
:10504000FFFEFFFCFDF7FFC070B5072609290AD94E
:10505000C568A1F10A0404EB4404A640B543A3408B
:105060001D43C56007E0056901EB4104A640B54357
:10507000A3401D4305611F23072A09D2446B521E1A
:1050800002EB820293409C4391400C43446370BD09
:105090000D2A09D2046BD21F02EB820293409C437B
:1050A00091400C43046370BDC46A0D3A02EB820266
:1050B00093409C4391400C43C46270BD816841F0B1
:1050C00080418160704700002DE9F04105460E46A1
:1050D00014461F463A4629462046FFF79FFB0548DF
:1050E00004600548066004F0D5F903F0B9FEBDE898
:1050F000F0810000F8020020FC0200202DE9F041C0
:1051000005460E4614461F463A4629462046FFF7F6
:1051100085FB054804600548066004F0BBF900F013
:1051200005FDBDE8F0810000F8020020FC0200202F
:1051300010B50246002018E0002112E0130103EB35
:1051400080030B440A4CE35C0A4C246804EB8004A3
:10515000645C6340074C246804EB800463544B1C7C
:10516000D9B20429EADB431CD8B20428E4DB10BD21
:105170003CEA0020F80200202DE9F0411C4D1D4EB4
:105180002888C0F500718AB2311800200BF08EFE1D
:1051900029884FF40078084480B2002728804045D1
:1051A00020D200280CD0002407E03019012100F0A3
:1051B000D9FC012806D0641CA4B228888442F4D308
:1051C000BDE8F0813019417801F01F01012902D0BA
:1051D000112904D006E0012100F05CFD02E001216C
:1051E00000F03CFF41460348FFF7B9FB2F80E7E79B
:1051F00056010020C43800202DE9F04180462A499C
:1052000000EB800202EB48104FF48065002601EBB2
:105210004014B4F82C040119C0F5806082B24046F5
:1052200005F0E8FCB4F82C14014489B2A4F82C145D
:10523000A94202D3A4F82C6401E00028E9D100259A
:1052400066193078AA2828D17078F52825D1778872
:10525000092F22D3F91FB01D0CF058FBF11911F8DA
:10526000011C814219D1314640460BF0CBFEB0788B
:10527000F17800EB012081B2002004E02A180A44F2
:10528000A25C2254401CB4F82C248242F6D890B27E
:10529000401AA4F82C04002500E06D1CB4F82C047E
:1052A000A842CDD8BDE8F081E83B0020F0B5ADF5CF
:1052B000017D02F09DFE00284ED104F0AFF90428D4
:1052C0004AD1324FF868A0B900221146202010F0D0
:1052D0005DFD0A21F860816140F668122C4910F0EA
:1052E00077FAF868002841680A7A42F020020A72C8
:1052F00032D02649F868083110F0FEFDB868002861
:105300002AD0FEF7C6FFB8684FF40076818939804D
:1053100004680EE062896168B24205D935463246BA
:105320006846FFF77BFA03E06846FFF777FA65897E
:105330002468002CEED1B86810F0A8F9FEF7ABFF96
:105340006F4607E03819022100F00CFC012806D056
:10535000641CA4B2AC42F5D30DF5017DF0BD381943
:1053600090F8221001F01F01012902D0112904D068
:1053700006E0022100F08EFC02E0022100F06EFE49
:1053800031466846FFF7EBFAE6E7000034000020FC
:10539000C4C201081A4A010F5143C0F3036243F625
:1053A000095312FB03F201EB8211C0F3035240F6E2
:1053B000354312FB03F201EB4211C0F3034240F20A
:1053C000712312FB03F201EB0212C0F3033101EB74
:1053D0004103C3EBC11102EBC102C0F3032101EB96
:1053E000C10303EB011102EB8102C0F3031101EBD6
:1053F000810102EB410100F00F00084470470000FA
:105400008096980010B5A8200CF09CFA4FF4A0608C
:1054100005F0C0FB4FF4E1300BF092FB04F0B4F95F
:1054200008F0BCF903F0E8FB532142F20F700BF0D7
:105430007BF808F087F8FFF7E3FCBDE8104002F0C6
:1054400045BA00002DE9F041194E0127194DB078F9
:105450004FF000085A2816D186F802800024C5F8BB
:10546000A072002264231146104606F087FCC5F89E
:10547000A082002264231146104606F07FFC641CC3
:10548000E4B20A2CEBD30BF067F93169401A6428B7
:1054900008D90BF061F93061707828B186F8018085
:1054A000C5F8A082BDE8F0817770C5F8A072F9E771
:1054B0005800002000004142FEE72DE9F04387B08C
:1054C00081460026C1EB0110344603AF0DF11408EC
:1054D0004500CDE90087E1B202AB04AA484607F0D7
:1054E000B1FC9DF810009DF81410884205D19DF87C
:1054F00008209DF80C309A4217D09DF80820C0EB88
:10550000001002EB80009DF80C20C1EB011102EBB2
:105510008101854209D38D4207D2E1B2484607F0A6
:1055200083FC6421B0FBF1F602E0641C0C2CD0D3A8
:1055300007B03046BDE8F08370B5AAB005464FF01D
:10554000FF31080CCDE9281028AC342105A8FFF75D
:1055500006FA2A461DA105A8FEF760FF12A804F06E
:10556000D7FA05A8FFF72FF90646324605A912A873
:1055700004F0CAFE01A912A804F0A0FA9DF80400E4
:105580009DF81110084420709DF807009DF80F1039
:10559000084460709DF809009DF80D100844A07043
:1055A0009DF80C009DF80A100844E0709DF80E006C
:1055B0009DF80810084420719DF810009DF8061011
:1055C00008446071DDE928012AB070BD2F5265637F
:1055D000686172676553797374656D2F2530386C17
:1055E000580000000148806A7047000044270020EE
:1055F000014890F82D007047442700200148006BB7
:105600007047000044270020002803D00249D1F849
:10561000361001607047000044270020024840789F
:10562000012800D00020704744270020014890F84E
:105630002C007047442700202DE9FF4703A805F000
:105640003BF8334C00260125324F04F11C09A046DB
:1056500001282CD03E70A66266707878012845D16A
:1056600002A807F0D9FB0298FFF766FFCDE9000119
:105670000099C8F81C10BDF80410A8F82010B978DB
:10568000404601292DD0022932D0032934D00429E3
:1056900036D005292AD1C16BC8F83610022084F80B
:1056A0002D00484605F06BF801282FD01DE0387812
:1056B0000128D2D002A807F0AFFB0298FFF73CFF09
:1056C000CDE900010099C8F81C10BDF80410A8F835
:1056D0002010484604F0C0FE0128BED13D70657020
:1056E000BBE70B483C300078D9E77E70BDE8FF8708
:1056F000C16BC8F83010D4E7C16BC8F83610D0E7DA
:10570000C16BC8F8301084F82D50CAE7FD70ECE783
:1057100044270020040000200C4A10B5926A8242FF
:105720004FF0000011D10A4CE0700420A07007482F
:10573000C1630120607000220A231146104606F062
:105740001DFB60780128F6D0E07810BD44270020CA
:10575000040000200D4A10B5926A82424FF000000A
:1057600012D10B4CE0700520A07008480968C16395
:105770000120607000220A231146104606F0FEFA4E
:1057800060780128F6D0E07810BD000044270020A2
:105790000400002004F033FEFFF74EFF00220F2329
:1057A0001146104606F0EAFAF6E700003EB5044658
:1057B000684602F085FBDDE90012174B002514B1A5
:1057C000012C13D026E0D0B21A78904203D15C7835
:1057D0000A0EA2421ED01A79521CD2B21A71142A91
:1057E00018D31870080E58701D7111E0D0B29A7855
:1057F000904203D1DC780A0EA2420BD05A79521C97
:10580000D2B25A71142A05D39870080ED8705D71FF
:1058100001203EBD00203EBD58010020F8B54A21C0
:105820001C48FFF77AF81C4C6A460021206805F0F6
:1058300055FB4FF419774A221649384602F070F8A2
:10584000206805F02FFC134E45F65A257088A842B3
:1058500002D13078462812D34A210E48FFF75DF86E
:1058600075806A460021206805F038FB4A22094904
:10587000384602F079F8206805F014FCF8BD0020E5
:10588000311809790129E7D8401C80B24628F7D39E
:10589000F8BD0000AC4000200000002000230522DD
:1058A0000021084606F06AFA002000F047F80F23AE
:1058B0000022F5E7F8B594211E48FFF750F81E4C7A
:1058C0006A460021206805F009FB4FF459759422BF
:1058D0001849284602F024F8206805F0E3FB9023DD
:1058E000144A0020014612F8016B491C304489B269
:1058F00080B29942F7D30F490A88A2F5B4435A3BC4
:1059000006D1B1F89020824202D1081D03F00AFAB4
:1059100094210848FFF723F86A460021206805F023
:10592000DDFA94220349284602F01EF8206805F0AB
:10593000B9FBF8BD94410020000000202DE9F0479C
:10594000FFF7D0FA764E96F8049002F06BFA012732
:105950000024032811D002F065FA02280DD0F4705B
:105960000AF0DEFE6F4D50B1B7700F20E870347151
:1059700003F058FD28B1347024E0F770F0E7B470FC
:10598000F6E701F071FC40F67411884204D93770D3
:105990002D20E870347100E0347001F065FC40F2B5
:1059A000BC7840450ED2002264231146104606F012
:1059B000E5F901F059FC404505D277702E20E870DA
:1059C000347100E0747001F01DFC308101F04CFC7A
:1059D000F08002F0C5FADFF8508190B1E86810B9A4
:1059E0000AF0BAFEE8600AF0B7FEE968401AB0F5BE
:1059F000FA7F07D32F20E87003F014FD10B934713B
:105A000065E0EC603079002861D001F0FBFBB0F577
:105A1000FA6F14D2686910B90AF09EFE68610AF044
:105A20009BFE6969401A42F6E061884208D3302043
:105A30006C61E87003F0F6FC10B9347100E06C6141
:105A400001F0DAFB10B13420E870347102F0EAF9A9
:105A500001280CD002F0E6F9042808D002F0E2F99F
:105A6000022814D002F0DEF903281FD02FE06420B2
:105A70000AF04EFB002214231146104606F07EF970
:105A8000C8F8A842C8F8A4422920E870B7E76878A7
:105A9000E8B100236C7002221946184606F06EF930
:105AA0006C61C8F8A872C8F8A47210E00AF054FE3D
:105AB0006861687808B30AF04FFE2969401A41F21C
:105AC0007071884203D32C6134710C20E870B9F1F5
:105AD000000F10D0307900280DD164200AF018FB97
:105AE0000022AC7019231146104606F047F9C8F899
:105AF000A842C8F8A442BDE8F087C8F8A842C8F890
:105B0000A4426F70A878401CC0B2A870042802D3C9
:105B10003520E87034710AF01FFE2861D7E70000D5
:105B200090270020080000200000424210B5002409
:105B30000020FFF7FDFA01240AE00AF079FC0AF0E0
:105B400053FB04F037FF2046FFF7F2FA601CC4B2A3
:105B50000A2CF2DB0AF06CFC0AF046FB0A20FFF785
:105B6000E7FA10BD30B589B00D46044620216846DD
:105B7000FEF7F5FE012D02D0022D18D04FE020785F
:105B800068284CD16078000649D40021A3780846E3
:105B9000DA1C04E0255C401C2944C9B2C0B2824230
:105BA000F8D8E01C185C884239D1241D34E02078F4
:105BB000682834D1302220216846FEF7A6FE202234
:105BC0006946601CFEF7D3FD48B16946002007F026
:105BD00085F920226946601CFEF7C9FDF8B994F8E2
:105BE000210068281BD194F82200000617D4002158
:105BF00094F823300846DA1C06E02518401C95F876
:105C00002150C0B22944C9B28242F6D804F124001E
:105C1000185C884203D12534185D162802D0002074
:105C200009B030BD0120FBE70029016802D041F036
:105C3000010101E021F001010160704730B5036806
:105C4000124ACC6813400A682243D1E905452C4327
:105C50002243CC6922430C6A22434C6A22438C6A59
:105C600022434C6B22438C6B22431A4302604269ED
:105C700022F00703D1E90B2422431A4342610A6947
:105C800042604A6882608968C16030BD3F801CF014
:105C9000704700002DE9F04FADF5057D0E46054635
:105CA00002274FF4827102A8FEF759FE0024022E4B
:105CB00000D12135E849B5F803004FF001084FF055
:105CC000680B0DF586790DF22D1A02AA1A287DD0DF
:105CD00015DC0D287BD008DC092879D2DFE800F03C
:105CE000782F4278547878577E0011380928F4D2FA
:105CF000DFE800F07CCDD0D5FDFDFDFDF600B0F570
:105D0000827F66D010DC40F20113A0F201129842AB
:105D10007BD004DC302879D0A12878D1C4E0012AD6
:105D20007ED0022AF9D181E0A0F58070053870D0CC
:105D300001286FD002286ED0FC2868D18EE06879E7
:105D40008DF808006879012802D0022803D007E006
:105D50001146002001E011460120491C07F0BEF861
:105D60002124CBE032208DF808002E208DF8090088
:105D700033218DF80A108DF80B0037208DF80C00B8
:105D800000208DF80D0088E08DF8088029E083A8B8
:105D900009F05CF9BDF81202000A8DF80E00BDF89A
:105DA00012028DF80D009DF810028DF80C009DF880
:105DB0000F028DF80B009DF80C028DF80A009DF87B
:105DC0000D028DF809009DF80E0203E08BE00AE059
:105DD0008DE032E08DF8080007248FE091F8E500AF
:105DE0001BE001248AE0D1F817007EE068790128E1
:105DF00001D002287CD18DF808006879511C401E22
:105E0000C0B207F081F8812478E005E05AE06FE045
:105E100006E016E019E01CE008798DF80800E0E7DC
:105E200002A9002007F07AF8042467E0002007F0B8
:105E30007DF8ADF80800022460E0104607F024F871
:105E4000F2E7104607F082F8EEE7104607F010F888
:105E5000EAE7104607F036F806244FE000279046A0
:105E600008EBC704A11CE01CCDE900012346621C1D
:105E70003946002006F0E6FF3946002006F0D4FF40
:105E80007F1CFFB260600C2FEAD3602436E0D1F8AB
:105E90006D002AE0104607F007F810242EE01046A7
:105EA00007F05EF8082429E068798DF808000228D8
:105EB0001ED891F88E00642110FB01F0ADF80900A6
:105EC00003241BE00AF0FCF801F0A2F9029001F0B3
:105ED000ABF9039001F0A2F90C2404900EE0FFE767
:105EE00001F0C2F901E001F08DF902909CE72FB1B9
:105EF000C124012E60D0022E7FD0A7E04FF0810890
:105F0000012E02D0022E2BD0A0E08DF80CB18DF81E
:105F10000D81A01C8DF80E01E8788DF80F0128790D
:105F20000DF211168DF81001224602A93046FEF737
:105F300075FC0021331908464A46641D04E0155CCF
:105F4000401C2944C9B2C0B2A042F8D303F8011BD7
:105F5000162003F8010BA3EB090082B243A947E026
:105F60000DF20D115F468DF80CB1002006F0B6FF62
:105F70008DF82D718DF82E81A01C8DF82F01E878F9
:105F80008DF8300128790AF105068DF83101224695
:105F900002A93046FEF742FC0021331908464A4662
:105FA000641D06E01518401C95F82150C0B2294424
:105FB000C9B2A042F6D33EE08DF80CB18DF80D4188
:105FC0008DF80E81002109F104038DF80F71084648
:105FD0004A46145C401C2144C0B2C9B20428F8D31C
:105FE00003F8011B162003F8010B981A82B24946E8
:105FF00000200AF08BFF29E0FFE75D468DF80CB129
:1060000009F10101002006F069FF8DF82D518DF88E
:106010002E4100210AF104038DF82F818DF8307193
:1060200008464A461418401C94F82140C0B2214446
:10603000C9B20428F6D303F8011B162003F8010B9C
:10604000A3EB090081B243A80AF0F4FB0DF5057D2E
:106050000120BDE8F08F0000C43A00202DE9F04F88
:10606000EDB004460D460020022662A96C9006F0B1
:1060700035FF802142A8FEF772FC022D00D12134A9
:10608000DFF844B3B4F803000DF1290180464FF066
:1060900068094FF0160A02AF0091192871D01BDC75
:1060A0000E2874D00EDC07284CD005DC012834D033
:1060B000B8F1040F36D13FE0082859D0B8F10D0FE0
:1060C000F8D160E0112869D0122872D0132871D05D
:1060D000B8F1140FEED1BEE0B0F5827F6BD011DCC9
:1060E00040F20112A0F20111904265D005DC1A289D
:1060F00077D0B8F1A10FDDD1B1E0012960D002293C
:10610000D8D172E0A8F58070053878D001287AD00F
:1061100002287CD0FC28CDD17DE06079012802D016
:10612000022804D0EAE0A11D002006F0D5FFA11D41
:10613000012006F0D1FF9DE06079012817D00228E8
:1061400015D0DBE06089ADF8AE01607A8DF8AC0166
:10615000207A8DF8AB01E0798DF8A801A0798DF84F
:10616000A90160798DF8AA016AA808F092FF81E080
:106170006179002006F098FF6179012006F094FF14
:1061800078E07EE003E0601D06F024FF72E06079B5
:1061900008B101286ED100F02DF96BE0607901287B
:1061A00001D0022879D1401EC0B2A11D06F0C0FF67
:1061B00060E048E04BE01EE0607906F0F7FF59E050
:1061C0006CA9002006F0AAFE0422611D6CA8FEF74F
:1061D000CEFAF8B1611D002006F0B6FF06F0F0FE21
:1061E000D9E75BE00BE00EE011E0B4F80510002009
:1061F00006F0B2FF3EE0601D06F024FF3AE0601DAD
:1062000006F0BEFF36E0601D06F010FF32E0601DB4
:1062100006F054FF2EE0002704EBC706F179307A30
:10622000CDE900017379B2793946002006F0E8FE25
:10623000D6F809203946002006F0D4FE7F1CFFB2B4
:106240000C2FE9D316E0601D06F01CFF12E0601D64
:1062500006F00CFF0EE0601D06F09EFF0AE060797C
:1062600002284BD8E0886421B0FBF1F08BF88E0057
:1062700006F0A6FE9124F926012D1BD0022D27D071
:1062800088E0207AD4F8054060F31F6400F0CCFF6A
:10629000B0FBF4F0ABF81E01EAE72FE0207AD4F867
:1062A000054060F31F6400F0B3FFB0FBF4F0ABF8FF
:1062B0001C01DDE78DF8089000208DF809408DF86D
:1062C0000A008DF80B608DF80CA0052202A936E0BB
:1062D0000DF109004D468DF80890202262A9FEF7C5
:1062E0009DFA8DF8295000208DF82A408DF82C60F9
:1062F0008DF82B008DF82DA0262148E04FF0D10B12
:10630000012D02D0022D1ED044E08DF8089001200E
:106310008DF809B03A1D8DF80A0000218DF80B6048
:1063200008463B5C401C1944C0B2C9B20428F8D3EB
:1063300002F8011B394602F801ABD01B82B20020E3
:106340000AF0E4FD26E04C468DF80890781C2022E7
:1063500062A9FEF763FA009A8DF8294001208DF8B2
:106360002AB000218DF82B008DF82C600846121DF4
:106370003B18401C93F82130C0B21944C9B204281C
:10638000F6D302F8011B02F801ABD01B81B202A8C0
:106390000AF050FAB8F10E0F03D06DB00120BDE83D
:1063A000F08F002301221946184605F0E7FCBFF3E1
:1063B0004F8F06480168064A01F4E061114301600D
:1063C000BFF34F8FFEE70000C43A00200CED00E061
:1063D0000400FA052DE9F04104460F4615461E4615
:1063E00033462A4602492046FEF76EFEBDE8F0819C
:1063F00070C4010838B54A212048FEF78EFA1F48BC
:106400001F4C45F65A2545806A460021206804F055
:1064100065FD4A2219494FF4197001F0A5FA206868
:1064200004F040FE15489C214C30FEF798FA1348C2
:106430006A464C3000210584206804F04FFD0F4966
:106440009C224C314FF4B27001F08EFA206804F0B7
:1064500029FE0A489421E830FEF781FA6A460021B5
:10646000206804F03BFD05499422E8314FF459704F
:1064700001F07AFA206804F015FE38BDAC40002027
:106480000000002038B594210948FEF768FA094C4D
:106490006A460021206804F021FD942204494FF44B
:1064A000597001F061FA206804F0FCFD38BD00006D
:1064B000944100200000002038B500210E4B0C460E
:1064C00003EB8102556A854202D15D18AC705462BB
:1064D000491CC9B21E29F3D3084C6A460021206822
:1064E00004F0FCFC9C2204494FF4B27001F03CFA29
:1064F000206804F0D7FD38BDF840002000000020DF
:106500002DE9F04F8FB00F46DDE918AB05469846F0
:106510009146382101A81C9EFEF721FA6424B5FBA0
:10652000F4F0B5FBF4F204FB105353A101A8FDF7FE
:1065300075FF082201A9D0010BF099F9B7FBF4F01F
:10654000B7FBF4F204FB10734BA101A8FDF766FF43
:10655000082201A94FF482600BF089F94FF47A7593
:10656000B9FBF5F105FB11900A24B0FBF4F3B9FB7C
:10657000F5F241A101A8FDF751FF082201A94FF44E
:1065800083600BF074F9B8FBF5F105FB1180B0FBEB
:10659000F4F3B8FBF5F238A101A8FDF73FFF08229C
:1065A00001A940F608000BF062F9BAFBF5F105FB12
:1065B00011A0B0FBF4F3BAFBF5F22FA101A8FDF78F
:1065C0002DFF082201A940F618000BF050F9BBFB83
:1065D000F4F1BBFBF4F204FB11B329A101A8FDF710
:1065E0001DFF082201A94FF484600BF040F91A98AE
:1065F000B0FBF4F1B0FBF4F204FB110320A101A8FD
:10660000FDF70CFF082201A910020BF030F91B98CE
:10661000B0FBF4F1B0FBF4F204FB110318A101A8E4
:10662000FDF7FCFE082201A94FF401600BF01FF9F1
:106630004FF46160B6FBF0F100FB11623C21B2FB4C
:10664000F1F301FB1324B6FBF0F200FB1262B2FB84
:10665000F1F3B6FBF0F20CA101A80094FDF7DEFE09
:10666000202201A94FF489600BF001F902200BF000
:10667000DFF80FB0BDE8F08F25642E2530326400BE
:1066800025642E2564000000253032643A2530321E
:10669000643A25303264000070B515460446202265
:1066A00000200BF0E4F88022214640200BF0DFF8B8
:1066B00029464FF48D600BF095F8BDE8704001203D
:1066C0000BF0B6B8F0B58FB00F4604461E4615461F
:1066D00038216846FEF743F9202239464FF4856099
:1066E0000BF0C5F8202221464FF490600BF0BFF864
:1066F0006424B5FBF4F0B5FBF4F204FB10530FA1D6
:106700006846FDF78BFE082269464FF48E600BF059
:10671000AEF8B6FBF4F0B6FBF4F204FB106307A18D
:106720006846FDF77BFE082269464FF48F600BF048
:106730009EF803200BF07CF80FB0F0BD25642E25E9
:10674000303264002DE9F043A5B0884606469946EC
:106750001746802104A82C9CFEF701F96425B6FB9E
:10676000F5F0B6FBF5F205FB106327A104A8FDF7D1
:1067700055FE082204A94FF4C0600BF078F8B8FB6E
:10678000F5F1B8FBF5F205FB11831FA104A8FDF795
:1067900045FE082204A94FF4D4600BF068F8B7FB5B
:1067A000F5F0B7FBF5F205FB107317A104A8FDF790
:1067B00035FE082204A94FF4C1600BF058F83C21C3
:1067C000B9FBF1F212A104A8FDF728FE102204A9DA
:1067D0004FF4C2600BF04BF8A07863792279E1782E
:1067E0008DE80F00637822780BA104A8FDF716FE50
:1067F000202204A94FF4C4600BF039F80D200BF0EF
:1068000017F825B0BDE8F08325642E2530326400EA
:106810002564204D696E00003230253032642F250A
:106820003032642F2530326420253032643A2530EE
:1068300032643A253032640010B5014620224FF40C
:10684000CE600BF014F8BDE8104010200AF0F0BF45
:1068500010B5014610224FF4C8600BF008F8BDE8EF
:1068600010400F200AF0E4BF14200AF0E1BF0E2010
:106870000AF0DEBF10B50C46014610224FF4D2607C
:106880000AF0F5FF2146BDE8104008224FF4D5601C
:106890000AF0EDBF12200AF0CBBF18200AF0C8BFE3
:1068A00010B58EB0044638216846FEF758F86421CA
:1068B000B4FBF1F0B4FBF1F201FB104307A1684611
:1068C000FDF7ACFD082269464FF4D6600AF0CFFF11
:1068D00013200AF0ADFF0EB010BD000025642E2578
:1068E0003032640010B58EB0044638216846FEF799
:1068F00036F8224604A16846FDF790FD17200AF0FD
:1069000097FF0EB010BD000025303264000000007B
:1069100070B592B00D4606461446402101A8FEF718
:106920001EF82B4632461CA101A80094FDF776FD07
:10693000202201A94FF4E0600AF099FF4FF4E465CA
:10694000202219A128460AF092FF06F09BFAE8B12E
:1069500006F0E2FA044606F095FA844204D314A144
:1069600001A8FDF75BFD0CE006F08CFA044606F08A
:10697000D3FA201A1821B0FBF1F20FA101A8FDF7FC
:106980004DFD202201A928460AF071FF00200AF0DF
:106990004FFF12B070BD00005645523A25642E25B7
:1069A000642E25640000000020202020000000004C
:1069B000C7EBBCA4BBEE0000CAB9D3C3CAA3D3E0E3
:1069C0002564CCEC000000001A200AF031BF000062
:1069D00010B58EB0044638216846FDF7C0FF224648
:1069E00007A16846FDF71AFD102269464FF4CA60F8
:1069F0000AF03DFF11200AF01BFF0EB010BD000091
:106A0000253032642000000030B58FB00D460446BA
:106A100038216846FDF7A3FF22460AA16846FDF724
:106A2000FDFC082269464FF4E0600AF020FF0822CE
:106A300029464FF4E1600AF01AFF1E200AF0F8FE22
:106A40000FB030BD253032642525000010B5014659
:106A500020224FF4E1600AF00AFFBDE81040162042
:106A60000AF0E6BE10B58EB0044638216846FDF740
:106A700076FF6421B4FBF1F0B4FBF1F201FB1043AB
:106A800007A16846FDF7CAFC082269464FF4E0609A
:106A90000AF0EDFE15200AF0CBFE0EB010BD00008E
:106AA00025642E253032640001494861704700009A
:106AB00000900240044A0029D16901D0014300E05E
:106AC0008143D161704700000090024005490028D1
:106AD000886902D040F0020001E020F002008861E5
:106AE0007047000000900240F0B5124F00234FF0B5
:106AF000004C44F2F45E561E786013E000EB431441
:106B0000C4F800C0C3EBC31505EB450501EB8505D3
:106B1000C4E901E5B34203D204F12005E56000E0D9
:106B2000E0605B1C9342E9D30349C8600348B86046
:106B3000F0BD0000C0010020009002408C42002007
:106B400005490028886902D040F4005001E020F493
:106B5000005088617047000000900240F0B50F4C73
:106B600000234FF48017561E206011E000EB431401
:106B70002760C3EBC31505EB450501EB8505A56053
:106B8000B34203D204F12005E56000E0E0605B1C45
:106B90009342EBD302490861F0BD0000C001002020
:106BA0000090024002680A430260704710B501215C
:106BB0004C06204606F028FD2046BDE81040002186
:106BC00006F022BD01B581B001980090002801D0E7
:106BD000401EFAE70CBD00000248816941F48011B3
:106BE00081617047009002400148006880687047EA
:106BF000C001002002680021002A08DB026812049C
:106C000005D40268D20502D50068C0F30D410846DC
:106C100070470000034900200968C90700D001201F
:106C2000704700000090024010B5094C01E00DF0E3
:106C300077FF2068FFF7DEFF0028F8D14020FFF73C
:106C400033FFBDE810404FF48030FFF72DBF000048
:106C5000C40100202DE9F04186B00027824E044691
:106C6000009701973069884620F01C0502A806F0BD
:106C700007FD7E4903987E4A0144914202D245F0C5
:106C8000080516E07B497C4A0144914202D245F056
:106C90000C050EE079497A4A0144914209D37949B9
:106CA00008447949884202D245F0040501E045F0E4
:106CB000100535614FF400420021404600F072FAA1
:106CC000002833D07148FFF77DFF206888B3019812
:106CD0000022401C019032231146104605F04EF868
:106CE0000121404600F086F9400702D4019814289B
:106CF000EDD30198142818D04FF48052002140465B
:106D0000019700F04FFA002810D0614D0198012141
:106D1000401C0190404600F06DF9800602D40198B5
:106D2000A842F3D30198A84204D1002006B0BDE8E0
:106D3000F08113E01F214046019700F05BF9C10686
:106D400003D54FF40061216200E02762400701D5BE
:106D5000676113E04FF4804060610FE0206A616971
:106D6000C00840EA510082B20021404600F01AFA01
:106D70000028DBD06FF07F40FFF724FF31684548E3
:106D80000140D4E901021043E26854F8103F1A436D
:106D9000104362681043A2681043E26810432269FE
:106DA000104362691043A2691043E2691043226AEA
:106DB0001043626A104308433060F4E90A01084353
:106DC000D4E9021211430843216908436169084369
:106DD000A1690843E16908437060206AB060606A95
:106DE000F060B1694FF641700140D4E90B021043E5
:106DF000238D626B42EA03421043A26B1043E26BA5
:106E000010430843B061D4E910010843F0612248FF
:106E1000826922490A40D4E912131943D4E914358E
:106E20002B431943A36D1943E36D1943236E194393
:106E3000636E1943A36E194311438161D4E91B1298
:106E40001143626F54F8783F1A431143626841EA74
:106E50008201A268114341F400010160016841F020
:106E600080010160012061E70080024000D3CEFE76
:106E7000C0E1E40040F1E9FD40787D0100796CFC5F
:106E8000005A6202001F0AFA80F0FA02FFFF0F00A8
:106E9000FFFF04000F8120FF00900240233FDEF837
:106EA000054B8A88184402640A78D1F8011042EA36
:106EB00001214164704700000080024010B5B0B06D
:106EC00001214FF0606006F093FBFFF76FFE00F0CA
:106ED000E9F8FFF79FFE0128FBD0684600F0FBF8B9
:106EE0000120009000204FF40071CDE90A10090440
:106EF00007901190CDE920010E90149013900A1183
:106F000015902590269023920420CDE92801800336
:106F10002A9080012B9040122C9040002E9000214E
:106F20006846FFF797FEC4B2012C03D10121034844
:106F3000FFF7C0FD30B0204610BD0000400001004A
:106F400005490028086802D040F0040001E020F064
:106F500004000860704700000080024005490028D6
:106F6000086802D040F0080001E020F00800086046
:106F7000704700000080024010B5094C00202168D5
:106F80000EF0C8FA002061680EF0C4FA0020A16873
:106F90000EF0C0FAE168BDE8104000200EF0BABA69
:106FA0009001002070B5402100200EF0BFFA104C77
:106FB0004021206000200EF0B9FA40F6E83560600C
:106FC000294600200EF0B2FAA060294600200EF0FB
:106FD000ADFAE060216831B1616821B1A16811B1F9
:106FE00008B1002070BDFFF7C7FF012070BD000091
:106FF0009001002018B500220092124A13694FF642
:10700000FF7403F01C0304EAC02018434FF4F86334
:1070100003EA8111014321F0020040F001001061F8
:1070200009490098401C00901069C00702D00098E0
:107030008842F6D30098884201D1002018BD5069DB
:1070400080B218BD00800240FFFF040070B5134CF1
:1070500000231A4621680D68002D0BDA10491646E8
:107060004B691B0602D580234B618E600260426033
:10707000826070BD0D682D040AD40D68ED0507D53A
:107080000D68AD0504D50A68C2F30D438A681B1F5D
:10709000CD6825600360C0E9012170BDC4010020F6
:1070A000009002400248016841F001010160704710
:1070B0000090024000B50120FFF750FFFFF78CFD64
:1070C0000120FFF73DFF0120FFF73AFD01205DF8A9
:1070D00004EBFFF7FBBC01210160002141608160EE
:1070E0004FF48042C160C0E90412D2108161C0E94E
:1070F000071241628162C162016341634022816380
:10710000C0E90F122022C0E91121C1640165416567
:1071100081658022C165C0E918128166C166016778
:107120004167D2048167C0E91F125210C0E92121D2
:107130001311C0E92331C0F89410C0F89810C0F8BA
:107140009C10C0E928125212C0F8A8209201C0F881
:10715000AC205212C0E92C21C0F8B81070470000D2
:107160000E4A11680B68002B01DA00207047C0F34B
:107170000C004860086840F040500860086840F023
:1071800000400860064843695B0703D50423436158
:1071900000234360C868106001207047C0010020D0
:1071A0000090024038B500230093114B1C694FF644
:1071B000FF7504F01C0405EAC02020434FF4F86476
:1071C00004EA8111014341F003005A611861094941
:1071D0000098401C00901869C00702D000988842AF
:1071E000F6D30098884201D1002038BD012038BD77
:1071F00000800240FFFF0400014800787047000053
:10720000C42700200148406970470000C4270020BF
:107210000148806970470000C42700200148806849
:1072200070470000C4270020014800697047000033
:10723000C427002070B50A4D0A4C08B1A8686060E8
:1072400005F056FEA9686268891A21F07F41B1FBFA
:10725000F0F505F04DFE6168B1FBF0F0284470BD1B
:10726000C4270020240000200148C06870470000A7
:10727000C427002010B51C4C0121204600F0F0FB73
:10728000002214231146104604F078FD55213320C6
:1072900001F010FC002302221946184604F06EFD8E
:1072A000A621322001F006FC0022142311461046CC
:1072B00004F064FDA621612001F0FCFB00221423F0
:1072C0001146104604F05AFD0021592001F0F2FB4E
:1072D000002214231146104604F050FD2046BDE85C
:1072E0001040012100F0BEBB000C024001F0D6FAB4
:1072F000002214231146104604F040FDFFF7BAFFA8
:1073000001F030FB00220F231146104604F036FD39
:1073100001F0F2FA00220F231146104604F02EFD70
:1073200001F0DCFA00220F231146104604F026FD7E
:10733000E6E700002DE9F04104460F4615461E46DB
:1073400033462A4602492046FDF7D8FEBDE8F081C3
:1073500070C4010870B5050018D11048037B012BDB
:1073600014D10968C0F805100121428101714173EF
:10737000441905E0002264231146104604F0FEFC87
:10738000627B012AF6D0A07B012801D0002070BDCD
:10739000294603A0FDF736F8012070BDAC3000206F
:1073A000436F6E6E656374207375636365737320DA
:1073B0005025643A0D0A00002DE9FC4700252C46B3
:1073C000019502F02BF97A4F4FF0010904280BD0F8
:1073D0003D73387901287ED1387B764E012806D05E
:1073E000B87B012873D0D8E087F80C90F1E7787B60
:1073F00001282ED1BD7370680EF048FA70680EF047
:1074000007FB0022114610200EF0C0FC4FF4FA5288
:10741000694970600EF0DCF97879D7F8061040EA17
:10742000012064490860002005F080FD02466149A2
:1074300070680EF08DFA80B170680EF027FA7068EF
:107440000EF0E6FA0023BD7302221946184604F036
:1074500095FCF87B012813D026E071680A20B84615
:10746000886187F80E9007F214404FF48061FDF7B1
:1074700054FAA8F81458A8F8165888F80D50E8E7F8
:107480003D74B87B01280ED10095B846B7F8122498
:1074900007F11101012370680EF032FF10F0FF0FA9
:1074A00001D188F81090FD73B87B012813D101A990
:1074B00070680EF021FD80B10C300CD170680EF0B8
:1074C000E5F970680EF0A4FABD7301E003E05AE03C
:1074D0003AA0FCF797FFBDE8FC87FCF701FF814667
:1074E000019840F21448056844E007EB44066B89B4
:1074F000B6F81408C0F5806200EB070108EB8420A1
:1075000008446968934229DDFDF788F9B6F8141834
:107510006868C1F5806101446960B6F8142868891B
:10752000C2F58062801AC21700EB92526FF3090213
:10753000821A07EB842000F2144006F61406FDF7C9
:107540006DF930886989C0F58060C21700EB9252EE
:107550006FF30902801A081A30800AE01A46FDF714
:107560005DF9B6F8140869890844C0F30900A6F863
:1075700014082D68002DB8D14846FCF7B5FE0198D7
:107580000EF084F8A7E770680EF080F970680EF0CE
:107590003FFABD730EA0FCF735FFF87B012800D140
:1075A000FD73787B012896D17D73BD7393E700004E
:1075B000AC3000202C000020C4C20108B7FECEF180
:1075C000C6F7B6CFBFAAC1ACBDD30D0A00000000FC
:1075D000CDF8CFDFD2D1B0CE0D0A000010B500201B
:1075E0000DF018FFBDE810400DF022B9F0B50023F2
:1075F00040B9154D2C7B012C04D12C7914B1AC7BF6
:10760000012C12D00020F0BD2C445B1CA45D01F8BD
:10761000014BB0F816489BB2641CC4F30904A0F8EF
:107620001648934207D91046F0BD40F2144404EBCB
:10763000802605EB4000B0F81648B0F81478BC423C
:10764000E2D11846F0BD0000AC30002070B5144DFA
:1076500000261446287B012820D1287900281ED036
:10766000A87B01281AD18002844200D9044605F182
:1076700011002246FDF7D2F8A5F812440120E87364
:10768000AC1905E0002301221946184604F076FBE8
:10769000E07B0128F6D0207C012800D0002070BDBE
:1076A000AC30002005490028086802D040F4806012
:1076B00001E020F48060086070470000003C024058
:1076C00070B50646002529B1012927D0022928D006
:1076D0004FF4407500F080F809281ED1124C206844
:1076E00020F440702060206828432060206820F04B
:1076F000F8002060206846F00201084320602068FE
:1077000040F48030206000F067F8216821F0020129
:107710002160216821F0F801216070BD4FF480756F
:10772000D8E74FF40075D5E7103C02400D49092019
:107730000A68D20301D5012070470A68D20601D534
:10774000062070470A68D20501D5022070470A68F2
:1077500012F0EF0F01D00720704709688907FBD5A9
:10776000082070470C3C02400248016841F000418B
:1077700001607047103C024070B50D46064600F0AF
:107780002BF8092813D10A4C206820F4407020609F
:10779000206840F400702060206840F00100206004
:1077A000356000F019F8216821F00101216070BDF9
:1077B000103C024005480068002805DA03480449E7
:1077C0000C3801600349016070470000103C024022
:1077D00023016745AB89EFCD08B509208DF800007E
:1077E000FFF7A4FF8DF800009DF800000128F7D0F6
:1077F0009DF8000008BD2DE9F04106460D469007B2
:107800000BD0012000EB9207FCF743FDFFF7D2FFFE
:107810000020FFF747FF002408E09708F4E7304610
:107820002968FFF7A9FF641C2D1D361DBC42F6D345
:107830000120FFF737FFFFF797FFBDE8F041FCF7A6
:107840002ABD0000F8B50E46044646281FD8124847
:107850002044C07800281BD0104D6A4600212868BB
:1078600003F03CFBC4EBC40000EB80004FF45D71FF
:1078700001EB800080B28C22314600F051F828687C
:1078800003F010FC308AA0F5B4415A3901D0002031
:10789000F8BD0120F8BD0000AC4000200000002031
:1078A00010B5094B002203EB8204646A844204D1C0
:1078B000981880780860012010BD521CD2B21E2A90
:1078C000F1D3002010BD0000F84000201CB50121BC
:1078D000084605F08DFE4FF40040009001208DF821
:1078E000040000218DF8061003218DF805108DF895
:1078F00007006946084800F067F807F0D7FB07481B
:10790000018821F038010180018841F008010180DF
:10791000012107F043FC1CBD000002400030014083
:107920002DE9F041DFF83C80002415460E4607465D
:10793000C8F8BC42032007F017FC380A07F014FC13
:10794000F8B207F011FC05E0FF2007F00DFC305500
:10795000641CA4B2AC42F7D30121C8F8BC12BDE844
:10796000F0810000000040422DE9F047154E002450
:10797000154688460746A146C6F8BC42062006F5CD
:107980002F7607F0F1FB4FF0010AC6F800A0C6F809
:1079900000900220A6F52F7607F0E6FB380A07F0E4
:1079A000E3FBF8B207F0E0FB05E018F8040007F08D
:1079B000DBFB641CA4B2AC42F7D3C6F8BCA2BDE8A2
:1079C000F087000000004042F0B5002201274FF090
:1079D000030C0B6807FA02F52B40AB422CD106686A
:1079E00053000CFA03F4A64306600E79D0F800E0C9
:1079F0009E4046EA0E0606600E79012E01D0022E48
:107A000012D18668A64386604E79D0F808E09E4081
:107A100046EA0E0686604668AE43466045688E7943
:107A20009640B6B235434560C568A543C560CC797C
:107A30009C40C3681C43C460521C102AC9D3F0BDCB
:107A40004B07DB0E9A40C90810B500EB8100016AB4
:107A50000F249C40A1430162016A1143016210BDE1
:107A600041837047018370474FF6FF710160002129
:107A7000017141718171C171704700002DE9FC41B4
:107A80000121082005F0B4FD012718208DF80470AD
:107A9000002600908DF806608DF807600320444CA6
:107AA0008DF8050069462046FFF78EFF1821204615
:107AB000FFF7D6FF00F006F93E4D4FF4FA684FF499
:107AC0007A74AE73022009F0CDF902233AA20421A0
:107AD0003AA0CDF8008000F00DF9012806D02E73F1
:107AE00038A0FCF78FFC0023012232E0C820009070
:107AF000022331A2062138A000F0FCF8052338A2A9
:107B0000082139A0009400F0F5F80C2339A20A21CD
:107B10003CA0009400F0EEF8012805D03CA0FCF752
:107B200071FC00F0CFF8CDE704233EA20B213FA06B
:107B3000009400F0DFF80A233FA2194641A0009408
:107B400000F0D8F8012809D041A0FCF75BFC6423C1
:107B500000220021084604F011F9B3E740F6B830DE
:107B600000900C2343A20D2146A000F0C3F8012889
:107B70001AD0002264231146104604F0FFF845A0F5
:107B8000FCF740FC4FF47A6000900C2339A20E21E0
:107B900048A000F0AFF8012894D1002264231146D8
:107BA000104604F0EBF82F732F73BDE8FC81000042
:107BB000000C0240AC3000204F4B000041540D0A35
:107BC000000000004572726F723A4E4F204D6F6494
:107BD000756C650D0A000000415445300D0A000027
:107BE0002B4353513A00000041542B4353510D0A8B
:107BF000000000002B4350494E3A20524541445961
:107C00000000000041542B4350494E3F0D0A000034
:107C10004572726F723A4E4F2053696D43617264C0
:107C20000D0A00004F4B0D0A0000000041542B4389
:107C30004F50533D300D0A002B435245473A2030F8
:107C40002C31000041542B435245473F0D0A0000A0
:107C50004572726F723A4E6574776F726B207265FF
:107C600067697374726174696F6E206661696C65AF
:107C7000640D0A002B5A495043414C4C3A20312C98
:107C80000000000041542B5A495043414C4C3F0DD9
:107C90000A0000004572726F723A4661696C656451
:107CA00020746F2067657420746865206C696E6B42
:107CB0000D0A000041542B5A495043414C4C3D3170
:107CC0000D0A000010B50A4C0120C4F890020023F0
:107CD00003221946184604F5247404F04FF80020D6
:107CE0002060BDE8104003460422014604F046B877
:107CF000008041422DE9F05F92460A4601469B46CC
:107D0000002402200A9F09F001F908F025FD06462B
:107D1000BAF1000F6BD0002F69D0DFF8DC90A9F228
:107D2000064808F019FD801B00EB8000B7EB400F00
:107D300060D900220A231146104604F01FF84D4670
:107D400009EB04014FF48062022009F0AFF8020051
:107D50001FD00020414618E00319B1F800C4EB5CC5
:107D600001F80C30B1F800345B1CC3F30903A1F82F
:107D70000034B1F802C4634505D10CF1010CCCF319
:107D80000903A1F80234401C80B29042E4D3A01849
:107D900084B2002CC5D05B462246514616480DF0F1
:107DA000DBFB0500BDD009EB0506052213A15046FB
:107DB000761EFCF7DCFCC0B9621B012311A1304622
:107DC000521C0DF0C9FB80B1701DFCF7B9FC81B2EB
:107DD00088F80414632908D10BA0FCF713FB0023D7
:107DE00001221946184603F0C9FF00F0D1FB01201B
:107DF000BDE8F09F0020FBE7EE2B00202B43535102
:107E00003A0000002C0000004572726F723A435332
:107E1000513A25642C4E6F207369676E616C0D0AB0
:107E2000000000000148407870470000A0010020D9
:107E30001CB50446082269460020FFF771FD6CB1AD
:107E4000BDF80000A0F5B4415A394FF0000006D14A
:107E5000ADF8000008226946FFF786FD01981CBDB9
:107E60001CB500200090019009480C46407A00287B
:107E70000DD0062269460748FCF779FC002806D099
:107E800004498C22891E2046FCF70DFD01201CBDF3
:107E900058000020023000200148007870470000A0
:107EA000AC4000200020054A014653181B7903B15D
:107EB000401C491C4629F8D370470000AC40002004
:107EC00003490A6802604A68426009890181704773
:107ED00090270020F0B599B0002464216846FCF793
:107EE0003EFD642218496846FCF798FC69464FF04D
:107EF000320C00220026ACEB020E3046AEF1010E31
:107F00000CE001EB400731F810307D88AB4203D222
:107F100021F8105001267B80401C80B28645F0DCA1
:107F20001EB1521C92B26245E4D30A2031F81020EF
:107F3000401C80B214442828F8D31E20B4FBF0F073
:107F400019B080B2F0BD0000284200200348C0688C
:107F5000086000201060186070470000F02F0020BB
:107F600010B51F4CA06890BB002004F0C7FF64212F
:107F700010FB01F0A0F57A7141F64C52914204D801
:107F800000EB40004000A06012E0A0F5045135393C
:107F9000B1F5FA7F0CD2A0F5C85000EBC00101EB9F
:107FA00000104FF21861A060884201D9A16007E07B
:107FB000A06844F62061884202D800F5FA6005E026
:107FC000A0686E2148436421B0FBF1F0A060FFF788
:107FD00019F9A168884201D9012010BD002010BD07
:107FE000080000200148C0797047000058000020B8
:107FF0000148007870470000540100200348807950
:10800000002802D0012800D002207047580000202C
:1080100070B58CB014460D460646FEF725FC224688
:108020002946304609F0AAFBD8B1FF281BD0022808
:108030001BD005281BD006281BD007281BD00928D9
:108040001BD00FA16846FCF7E9F96846FEF7FEFC75
:10805000002305221946184603F090FE00200CB0BC
:1080600070BD0120FBE709A1ECE70BA1EAE70DA138
:10807000E8E70FA1E6E710A1E4E711A1E2E70000BD
:10808000C6E4CBFBD4ADD2F200000000CFECD3A607
:10809000B3ACCAB100000000D3E0B6EEB2BBD7E388
:1080A00000000000BFA8BAC5B2BBB4E6D4DA000035
:1080B000D2D1B9D2CAA70000D2D1CFFABFA800004E
:1080C000D5FDD4DAC6E4CBFBD7AEB3E4B5E7000008
:1080D00000EB800101EB4010044901EB401090F8E7
:1080E0000104012800D0002070470000E83B002078
:1080F0000148D0F88C007047F02F00200348D0F8DA
:1081000012200A60C08A888070470000F02F00208B
:108110000148B0F882007047F02F00200148407CF1
:1081200070470000F02F00200148D0F89000704701
:10813000F02F00200148007C70470000F02F002045
:108140000148807A70470000580000200148C0783C
:1081500070470000080000200148B0F88400704714
:10816000F02F00200148B0F886007047F02F002063
:108170000148B0F888007047F02F00200148D0F87F
:1081800098007047F02F002070B5114D0024E87A58
:1081900008B14FF4807408F0DFFA296B401A41F2FD
:1081A0007071884202D90020E8720446E86AC1056D
:1081B00009D0C0F34720A97A642211FB02F1B1FB78
:1081C000F0F0204370BD012101EB5020C0B2F2E776
:1081D0005801002003488068086000201060186083
:1081E00070470000F02F0020074B10B51C7B012CBE
:1081F00000D108B1002010BD0868C3F805005A81FD
:1082000001201871987B10BDAC3000202DE9F04F93
:10821000A5B00D4606461446642104A8FCF79FFB52
:1082200020211DA8FCF79BFB002E7DD14E4E307BFC
:108230000128FAD101224DA104A8FCF7EFF8012290
:108240004EA11DA8FCF7EAF8B07BDFF840814FF0A3
:1082500001094FF47A7B0027A0B91DA8FCF7B3FAF7
:108260001FFA80FA04A8FCF7AEFA81B253461DAAA1
:1082700004A8CDF800B0FFF73DFD10B186F80E90D0
:1082800027E0B77308F068FADFF800A1DAF81010F9
:10829000411A40F6B830814217D908F05DFACAF8A1
:1082A00010001DA8FCF78FFA1FFA80FA04A8FCF74B
:1082B0008AFA81B253461DAA04A8CDF800B0FFF790
:1082C00019FD0028DAD1B77309E0B07B012803D08B
:1082D00028B108F80470012025B0BDE8F08F012214
:1082E00026A11DA8FCF79AF8E878A9786A78009288
:1082F0000394CDE901102B78012225A104A8FCF7F5
:108300008DF81DA8FCF75FFA1FFA80FA04A8FCF7A5
:108310005AFA81B240F6B830009053461DAA04A81C
:10832000FFF7E8FC002800E01BE0A7D118F80400E4
:108330004146401CC0B208F804000A2811D30F704F
:1083400088F80170E878A978CDE9001002946B787C
:108350002A78214617A0FCF755F81FA0FCF752F821
:1083600037730020B8E70000AC30002041542B5A8E
:108370004950535441543D25640D0A002B5A49502D
:10838000535441543A2025642C310000440000200D
:1083900041542B5A49504F50454E3D25642C302CAA
:1083A00025642E25642E25642E25642C25640D0A53
:1083B00000000000504F525420256420C1ACBDD3B2
:1083C00025642E25642E25642E25642C256420CA60
:1083D000A7B0DC0D0A000000C4A3BFE9D6D8C6F4DC
:1083E0000D0A00002DE9F0438BB0282101A8FCF70D
:1083F000B6FA08F0B1F9464C464F4FF000086168F4
:10840000401A41F2707188420FD908F0A5F96060F6
:1084100040F6B83000900C233FA20D2142A0FFF798
:1084200069FC012801D087F80C8008F095F9E16813
:1084300044F25065401A4FF47A79A8420FD908F0F7
:108440008BF9E0600C233CA20A213FA0CDF80090FC
:10845000FFF750FC012802D087F80C8001E0387B40
:1084600008B9FFF70BFB08F077F9A168401AA8429A
:108470000AD908F071F9A060052336A2082137A0B7
:10848000CDF80090FFF736FC387BE0B300243D19AF
:108490002879012833D107EB440607EB8401728960
:1084A0002046491DFFF7B2FEE87B012825D185F85B
:1084B0001080A87B08B3B6F81234621C2AA101A868
:1084C000FBF7ACFF01A8FCF77EF981B201232CA2D7
:1084D00001A8CDF80090FFF70DFC70B14FF4FA60E1
:1084E000009007EB8420B6F812140A2325A211305D
:1084F000FFF700FC08B10120287485F80F80641C88
:1085000014F0FF04C3D000F043F80BB0BDE8F083D3
:1085100044000020AC3000202B5A495043414C4CC1
:108520003A20312C0000000041542B5A495043415D
:108530004C4C3F0D0A0000002B4350494E3A20524C
:10854000454144590000000041542B4350494E3FDF
:108550000D0A00002B4353513A00000041542B43B5
:1085600053510D0A0000000041542B5A4950534505
:108570004E445241573D25642C25640D0A000000ED
:108580003E000000495053454E445241573A0000C6
:108590002DE9F0478CB0202103A8FCF7E0F94FF457
:1085A000806631468148FCF7B8F90BA9002004F039
:1085B000B5FC002004F0BAFC9DF82E209DF82F1089
:1085C0000092CDE901109DF82D309DF82C2078A166
:1085D00003A8FBF723FF32467449022008F066FC2B
:1085E000784A724DC8B1002115E0B2F800446B5CC6
:1085F0001355B2F800345B1CC3F30904A2F800441D
:10860000B2F802349C4204D15B1CC3F30903A2F804
:108610000234491C89B28142E7D364480024B2F88D
:1086200000340BE0575C491C641C00F8017BC1F36B
:108630000901A4B2A2F80214B44203D2B2F802149F
:108640009942EFD1002C73D0012322465EA15748F6
:108650000CF082FF0004000C6AD0201A401C0B288A
:1086600001DA80B262E00923224658A14F480CF09B
:1086700073FF0004000C5BD0A9460544A5F1010876
:108680006D1E2A1B012354A128460CF065FF00042F
:10869000000C74D02E1816F8020C3138761E10F02B
:1086A000FF057FD1761C321B01234BA130460CF015
:1086B00053FF0004000C75D00644321B012346A171
:1086C00030460CF049FF0004000C6BD00644B24663
:1086D000321B012340A130460CF03EFF0004000C89
:1086E00060D0064403A8FCF76EF80346A8EB090027
:1086F000271A3A4603A940460CF02EFFF0B3504625
:10870000FCF71EF882B2CA46A6EB0A00211A901C9A
:1087100081420ADB06EB020999F800000D2803D11B
:1087200099F801000A2807D00937B8B205F028FAED
:1087300000200CB0BDE8F0870020DFF8A08023E027
:1087400008EB450140F2144CB1F814780CEB852C81
:108750004744335C07F80C30B1F814385B1CC3F3A2
:108760000903A1F81438B1F81678BB420AD14FF4C6
:108770004073B7FBF3FC03FB1C7301E00EE011E058
:10878000A1F81638401C80B29042D9D3A9EB0A0058
:10879000201A80B205F0F4F90120CAE70937B8B20F
:1087A00005F0EEF9A8EB0900201A5AE7EE2B00209D
:1087B0002C25642E25642E25642E25642C25642CFE
:1087C00000000000E82700202B0000002B5A495031
:1087D000524543563A0000002C000000AC30002007
:1087E000F0B5002340B9154D2C7B012C04D12C7918
:1087F00014B1AC7B012C12D00020F0BD2C445B1CCA
:10880000A45D01F8014BB0F816489BB2641CC4F398
:108810000904A0F81648934207D91046F0BD40F26B
:10882000144404EB802605EB4000B0F81648B0F87D
:108830001478BC42E2D11846F0BD0000AC300020F4
:1088400070B51446060025D1134D287B012821D18F
:10885000287900281FD0A87B01281BD180028442E0
:1088600000D9044605F111002246FBF7D7FFA5F811
:1088700012440120E8730848841905E0002301220E
:108880001946184603F07AFAE07B0128F6D0207CDE
:10889000012800D0002070BDAC3000201CB50121A3
:1088A000082004F0A5FE01208DF8040000208DF8BA
:1088B00006008DF807000320074C8DF80500694677
:1088C0002046FFF781F801212046FFF7CBF84FF44F
:1088D000965008F051FA1CBD000C024010B50D2056
:1088E00000F07AF80349421C01D0886010BD886806
:1088F00010BD0000C42700202DE9F041002406200F
:1089000000F06AF8154D411C25D0154E05237278EC
:10891000B2FBF3F103FB1127A5F11401521C41F83E
:108920002700D0B27070052801D10020707000209F
:1089300051F82020401CC0B214440528F8D3B4FBE1
:10894000F3F0A86104F062FAA969B1FBF0F0686184
:108950000846BDE8F081A869FBE70000C4270020B5
:10896000240000202DE9F0410024082000F034F814
:10897000174D411C2AD0174E05233278B2FBF3F174
:1089800003FB1127A5F12801521C41F82700D0B2A2
:108990003070052801D100203070002051F82020CF
:1089A000401CC0B214440528F8D3B4FBF3F028618E
:1089B00004F0E6FA01462869B0FBF1F1E96044F6FB
:1089C0002061884200D20020BDE8F0812869FBE7E1
:1089D000C4270020240000202DE9F043A3B0054661
:1089E00040216846FBF7BBFF402110A8FBF7B7FF0B
:1089F0006A218DF8801005F07F008DF88100002439
:108A0000032008F02FFA022220A9032008F07EFAA2
:108A100000250DF140094FF47A78022003F07AF92D
:108A200064226946032008F041FA020010D0A7181A
:108A3000402F03D3002023B0BDE8F08309EB0400EE
:108A40006946FBF7EBFEBCB2042C01D3109E03E099
:108A50006D1CADB24545E0D3144A1548454522D1B9
:108A60008178491C81708178142903D30121117008
:108A7000142181709DF880009DF88110C6F30722B3
:108A80000844F1B28B181844C6F307431844C04396
:108A9000C4B2350E4FF0FF30A542CCD1080440EAF5
:108AA00002201843C7E700211170E2E7C427002025
:108AB0002400002030B5C1B06A238DF8003040F0AA
:108AC000800000228DF80100080A8DF802008DF860
:108AD0000310104669460B5C401C1A4480B2D2B2A7
:108AE0000428F8D3D0438DF80400032008F0BAF925
:108AF00005226946032008F009FA00244FF47A752C
:108B0000022003F007F9012240A9032008F0CEF962
:108B100010F0FF0F03D09DF80001542803D0641C0F
:108B2000A4B2AC42ECD3094A0948AC420BD18178DB
:108B3000491C81708178142903D3012111701421FB
:108B4000817041B030BD00211170F9E7C4270020C9
:108B500024000020FEE700002349884202D34FF0A2
:108B6000FF3070472149B0FBF1F2B0FBF1F301FB9C
:108B700013001F491207B0FBF1F302EB0362B0FBD5
:108B8000F1F301FB13001B49B0FBF1F302EB0352BD
:108B9000B0FBF1F301FB130042F21071B0FBF1F3F3
:108BA00002EB0342B0FBF1F301FB13004FF47A71C7
:108BB000B0FBF1F302EB0332B0FBF1F301FB130066
:108BC0006421B0FBF1F302EB0322B0FBF1F301FBF4
:108BD00013000A21B0FBF1F302EB0312B0FBF1F337
:108BE00001FB130010447047FFE0F50580969800E4
:108BF00040420F00A08601007CB50121102004F046
:108C0000F7FC4FF4C060009001208DF804000024B0
:108C10008DF806408DF8074003200C4D8DF80500B7
:108C200069462846FEF7D0FE69152846FEF718FF6C
:108C300029152846FEF714FF802100918DF8044085
:108C400069462846FEF7C0FE7CBD000000100240C9
:108C50002DE9FC472D4E0D460446002798469146C7
:108C600077728C211030FBF77AFE27606760A7606F
:108C70006846E76006F0EAF9BDF806004FF4FA61CD
:108C8000B0FBF1F201FB1200A0749DF80400E07447
:108C90009DF8030020759DF8000060759DF80100A7
:108CA000A0759DF80200E075D4F81200A061E08A7A
:108CB000A0830120FEF7BEFAA4F88200A4F8840085
:108CC00007F04AFD206060602574C4F88C9001466E
:108CD00067740FA0C4F89080FBF794FB25B1032DB7
:108CE00005D0012D08D003E0307EE07700E0E77783
:108CF0000120B072BDE8FC87707960740348C4F845
:108D000090800B300088C4F88C00F0E758000020F9
:108D1000537461727454696D6572A3BA25640D0A47
:108D200000000000F8B50646164D45F65A20308280
:108D30006A460021286802F0D1F8134C4FF4806194
:108D40002278C2EBC20000EB800001EB800080B211
:108D50008C223146FEF708FE2278201D0121115495
:108D60002078401C462800D3002020704A22064963
:108D70004FF41970FEF7F8FD286802F093F901200E
:108D8000F8BD000000000020AC40002038B50546CA
:108D900094211548FBF7E3FD134C45F65A218C222C
:108DA00021802946201DFBF77EFD902300222146CD
:108DB000104611F8015B401C2A4480B292B29842DE
:108DC000F7D3A4F89020094C6A460021206802F0ED
:108DD00085F8942204494FF45970FEF7C5FD2068C8
:108DE00002F060F9012038BD94410020000000200D
:108DF000F8B50021184C0B4604EB8102556A8542F8
:108E000002D16518AB705362491CC9B21E29F3D355
:108E10002178491C1E2901D3237000E0217061785C
:108E20000D4D491C61702278AD1C0C4E51552178B6
:108E30006A4604EB810148620021306802F04EF876
:108E40009C22A91E4FF4B270FEF78EFD306802F02E
:108E500029F92078405DF8BDF8400020000000208E
:108E600010B500240A20FCF763F909240AE000F099
:108E700071FA00F0BBFA2046FCF75AF900F00CF842
:108E8000601EC4B2002CF2DC00F064FA00F0AEFA0E
:108E90000020FCF74DF910BD30B589B000200890D6
:108EA00050E2FE480168089811F820000790FB483E
:108EB0000168089801EB800040780690F748016847
:108EC000089801EB800080780590F44801680898C4
:108ED00001EB8000C0780490079813F0C5F90446B0
:108EE000079813F0C1F9039013F0BEF944400798B6
:108EF00013F0BAF9029013F0B7F9039013F0B4F934
:108F00004440079813F0B0F9019013F0ADF90290C6
:108F100013F0AAF9039013F0A7F9069813F0A4F937
:108F200005460698454013F09FF9039013F09CF90D
:108F3000069813F099F9029013F096F9039013F044
:108F400093F94540069813F08FF9019013F08CF9CE
:108F5000029013F089F9039013F086F96C4005989C
:108F600013F082F90598054613F07EF9039013F08B
:108F70007BF94540059813F077F9029013F074F9E6
:108F8000039013F071F94540059813F06DF90190C5
:108F900013F06AF9029013F067F9039013F064F983
:108FA0006C40049813F060F90498054613F05CF9DE
:108FB000039013F059F9049813F056F9029013F046
:108FC00053F9039013F050F94540049813F04CF90D
:108FD000019013F049F9029013F046F9039013F051
:108FE00043F96C40AD480168089801F820400798A3
:108FF00013F03AF90798044613F036F9039013F08A
:1090000033F9079813F030F9029013F02DF903901B
:1090100013F02AF94440079813F026F9019013F051
:1090200023F9029013F020F9039013F01DF906982C
:1090300013F01AF90546069813F016F9039013F089
:1090400013F94540069813F00FF9029013F00CF94C
:10905000039013F009F94540069813F005F90190C3
:1090600013F002F9029013F0FFF8039013F0FCF8EC
:109070006C40059813F0F8F805460598454013F044
:10908000F3F8039013F0F0F8059813F0EDF8029060
:1090900013F0EAF8039013F0E7F84540059813F051
:1090A000E3F8019013F0E0F8029013F0DDF803907C
:1090B00013F0DAF86C40049813F0D6F804980546DB
:1090C00013F0D2F8039013F0CFF84540049813F052
:1090D000CBF8029013F0C8F8039013F0C5F84540A0
:1090E000049813F0C1F8019013F0BEF8029013F049
:1090F000BBF8039013F0B8F86C4068480168089812
:1091000001EB80004470079813F0AEF8079804460E
:1091100013F0AAF8039013F0A7F84440079813F04F
:10912000A3F8029013F0A0F8039013F09DF84440C8
:10913000079813F099F8019013F096F8029013F045
:1091400093F8039013F090F8069813F08DF80698B2
:10915000054613F089F8039013F086F8069813F08B
:1091600083F8029013F080F8039013F07DF84540E7
:10917000069813F079F8019013F076F8029013F046
:1091800073F8039013F070F86C40059813F06CF8C6
:109190000546059813F068F8039013F065F845400C
:1091A000059813F061F8029013F05EF8039013F045
:1091B0005BF84540059813F057F8019013F054F808
:1091C000029013F051F8039013F04EF86C4004989D
:1091D00013F04AF805460498454013F045F803900B
:1091E00013F042F8049813F03FF8029013F03CF8A3
:1091F000039013F039F84540049813F035F80190C6
:1092000013F032F8029013F02FF8039013F02CF8BB
:109210006C4022480268089802EB8000847007982E
:1092200013F022F804460798444013F01DF8039009
:1092300013F01AF8079813F017F8029013F014F8C7
:10924000039013F011F84440079813F00DF80190C3
:1092500013F00AF8029013F007F8039013F004F8E3
:10926000069813F001F80698054612F0FDFF0390EA
:1092700012F0FAFF4540069812F0F6FF029012F045
:10928000F3FF039012F0F0FF4540069812F0ECFF58
:10929000019012F0E9FF029002E00000F8020020C5
:1092A00012F0E2FF039012F0DFFF6C40059812F01D
:1092B000DBFF0598054612F0D7FF039012F0D4FFAC
:1092C000059812F0D1FF029012F0CEFF039012F039
:1092D000CBFF4540059812F0C7FF019012F0C4FF84
:1092E000029012F0C1FF039012F0BEFF6C40049890
:1092F00012F0BAFF0546049812F0B6FF039012F080
:10930000B3FF4540049812F0AFFF029012F0ACFF9B
:10931000039012F0A9FF4540049812F0A5FF0190B8
:1093200012F0A2FF029012F09FFF039012F09CFF38
:109330006C4007480268089802EB8000C4700898E7
:10934000401C089008980428FFF6ABAD09B030BD6A
:10935000F802002024490968487B234909684A7AB1
:10936000214909684A73204909684A791E490968F0
:109370004A721D4909684A781B4909684A711A49A5
:109380000968487018490968887817490968897A0E
:10939000154A12689170144909688872124909685F
:1093A0008879114909688A7B0F4909688A710E49D1
:1093B000096888730C490968C8780B490968C97934
:1093C000094A1268D17008490968CA7A06490968C9
:1093D000CA7105490968CA7B03490968CA7202490A
:1093E0000968C87370470000F802002070B50024B7
:1093F00013E000250DE00A49096801EB8501085DCD
:109400000AF0CCF80649096801EB85010855681C8B
:10941000C5B2042DEFDB601CC4B2042CE9DB70BDC7
:10942000F802002010B5074C2079002807D007F07B
:1094300093F9A169401AC82802D90020207110BDF3
:10944000012010BD080000202DE9F0410546104F15
:1094500000EB4504002617F82400A52807D05A2859
:1094600009D001280CD007F82460BDE8F08107F886
:109470002460002107E02846FEF7C0FD0128F4D053
:1094800007F8246001212846BDE8F04106F010BD30
:109490009440002038B5002429E0002000EB84002F
:1094A0005B490968085C002101EB8401594A50546A
:1094B000012000EB840056490968085C012101EB9A
:1094C00084015054022000EB840051490968085C73
:1094D000022101EB84015054032000EB84004C492D
:1094E0000968085C032101EB84015054641C042CBE
:1094F000D3D389E0601E002101EB80004549085C60
:109500008DF80000601E012101EB80004149085CDC
:109510008DF80100601E022101EB80003D49085CCE
:109520008DF80200601E032101EB80003949085CC0
:109530008DF8030004F0030080BB9DF800509DF8F7
:1095400001008DF800009DF802008DF801009DF8E3
:1095500003008DF802008DF803509DF800000AF01A
:1095600023F88DF800009DF801000AF01DF88DF831
:1095700001009DF802000AF017F88DF802009DF82E
:1095800003000AF011F88DF803009DF8000022494D
:1095900001EB9401097848408DF80000201F00215C
:1095A00001EB80001B49085C9DF800104840002139
:1095B00001EB8401174A5054201F012101EB800068
:1095C0001146085C9DF801104840012101EB84011F
:1095D0005054201F022101EB80001146085C9DF8C9
:1095E00002104840022101EB84015054201F032146
:1095F00001EB80001146085C9DF8031048400321F0
:1096000001EB84015054641C2C2CFFF473AF38BD63
:10961000FC0200203CEA002080C6010810B50121B0
:109620000020FDF7E7FC00F0040010BDFEB50121AD
:109630000F2003F0DDFF01218D03284604F008F818
:10964000012005F02DFE8620032700908DF805707F
:1096500002208DF80400374E00248DF8074069463B
:109660003046FEF7B1F90B2201213046FEF7E8F94A
:109670000B2202213046FEF7E3F90B220721304688
:10968000FEF7DEF932202C4E009069463046FEF798
:109690009BF90B2201213046FEF7D2F90B2204215F
:1096A0003046FEF7CDF90B2205213046FEF7C8F90A
:1096B0004FF46050214E009069463046FEF784F921
:1096C0000B2211463046FEF7BBF90B220C21304627
:1096D000FEF7B6F90B220D213046FEF7B1F90095E1
:1096E0008DF8057001258DF804508DF806408DF831
:1096F000074069463046FEF767F9114EC6F8B85282
:10970000322006F52E7608F03BF934603D208DF8C6
:1097100008008DF809408DF80A408DF80B5002A81A
:1097200001F006FAFDF7CAFB08B10020FEBD0120DA
:10973000FEBD00000000024000080240000402409C
:10974000008040420D4810B5C078002301220C492A
:109750000C4C022808D0012809D000280DD1C1F8EE
:10976000A032C1F8A43206E0C1F8A022F9E7C1F89E
:10977000A032C1F8A422C4F8802210BD58000020F5
:1097800000804042000042422DE9FC4101211620A8
:1097900003F02EFF01258DF8045000248DF80640BB
:1097A0008DF807400320164F4FF440768DF80500E2
:1097B000009669463846FEF707F931463846FEF707
:1097C00051F9104E694630460095FEF7FDF801212B
:1097D0003046FEF747F90C4F2E0269463846009690
:1097E000FEF7F2F831463846FEF73AF90748C0F876
:1097F000A042C0F8A4420648C0F88052BDE8FC81EF
:109800000004024000100240000802400080404274
:10981000000042422DE9F04196B0804606F09CFFE0
:10982000054638216846FBF79AF820210EA8FBF779
:1098300096F86946002003F051FB00240EAE6F46F7
:109840006846FAF7C0FF2044384410F8040C30553D
:10985000641CE4B2042CF3D30EA94046FBF77AFF54
:10986000194C012804D0FDF718F84FF47A7610E06F
:109870004046FFF7BDFAA06124E000221423114600
:10988000104602F07BFA0EA94046FBF763FF012861
:1098900008D006F061FF401BB042EED3002016B0A6
:1098A000BDE8F0814046FFF7A3FAA06105E0002281
:1098B00014231146104602F061FA06F04DFF401BDA
:1098C000C828F4D30120EAE758000020F8B59C210D
:1098D0001548FBF744F8154C6A460021206801F052
:1098E000FDFA4FF4B2769C220F493046FEF718F885
:1098F000206801F0D7FB0C4F45F65A25388CA8425A
:1099000011D09C213846FBF72AF83D846A46002195
:10991000206801F0E3FA9C2239463046FEF724F82D
:10992000206801F0BFFBF8BDF840002000000020D7
:109930002DE9F043EFB00E4681464FF48278414660
:1099400001A8FBF70CF8202165A8FBF708F801A98E
:10995000002003F0C3FA002401AD65AF01A8FAF7B7
:1099600032FF2044284410F8040C3855641C042CA1
:10997000F4D3414601A8FAF7F2FF01A8FBF744FE31
:10998000042265A901A8FAF7F2FE48B16DA948467C
:10999000FDF786FF012803D001A8FCF74DFF45E045
:1099A0004FF000086DA94846FDF77AFF01284AD11B
:1099B0000020FEF771FA04460020FEF773FAC7B2E2
:1099C00000250DE0A0B242A9FDF73CFF012804D11B
:1099D0009DF817016D99884207D064B1641E6D1C13
:1099E000BD42EFD3B8F1000F2DD0BDF88001B042D9
:1099F00003D2341A02E04524F1E700242146484608
:109A000007F0D0FAD8B14846FCF756FD00230222F1
:109A10001946184602F0B2F944A80090BDF880112A
:109A2000BDF87E012246649BFCF78CFE00230522D4
:109A30001946184602F0A2F96FB0BDE8F083012084
:109A4000FCF7C6FFF2E70220FAE770B503460024F0
:109A5000002010E00E5C451C4D5D46EA0526851C85
:109A60004D5D46EA0546C51C4D5D46EA056543F871
:109A70002450641C001D9042ECD370BD70B50346A9
:109A800014460022002015E011F822501D5431F830
:109A90002250C5F30726451C5E5551F82250C5F3E8
:109AA0000746851C5E5551F822502D0EC61C9D554B
:109AB000521C001DA042E7D370BD00002DE9FC41FF
:109AC00004460E46002500272088C0F3C505382D22
:109AD00002D2C5F1380001E0C5F17800074608223E
