:020000040800F2
:1000000078040020390200080907000805070008E5
:10001000070700087D0300087D0E000800000000AF
:10002000000000000000000000000000030B0008BA
:100030007F0300080000000071070008B90B0008EA
:10004000530200085302000853020008530200083C
:10005000530200085302000853020008530200082C
:10006000530200085302000853020008530200081C
:10007000530200085302000853020008530200080C
:1000800053020008530200085302000853020008FC
:1000900053020008530200085302000853020008EC
:1000A00053020008530200085302000853020008DC
:1000B00053020008530200085302000853020008CC
:1000C00053020008530200085302000853020008BC
:1000D00053020008530200085302000853020008AC
:1000E000530200085302000853020008530200089C
:1000F000530200085302000853020008530200088C
:10010000530200085302000853020008530200087B
:10011000530200085302000853020008530200086B
:10012000530200085302000853020008530200085B
:10013000530200085302000853020008530200084B
:10014000530200085302000853020008530200083B
:10015000530200085302000853020008530200082B
:10016000530200085302000853020008530200081B
:10017000530200085302000853020008530200080B
:10018000530200085302000800F002F800F03CF8A7
:100190000AA090E8000C82448344AAF10107DA45E2
:1001A00001D100F031F8AFF2090EBAE80F0013F0F8
:1001B000010F18BFFB1A43F0010318475C0D000044
:1001C0007C0D0000103A24BF78C878C1FAD85207D5
:1001D00024BF30C830C144BF04680C6070470000C1
:1001E0000023002400250026103A28BF78C1FBD840
:1001F000520728BF30C148BF0B6070471FB500F0E1
:1002000085FE1FBD10B510BD00F074F81146FFF754
:10021000F5FF00F055FE00F0A6F803B4FFF7F2FF7B
:1002200003BC00F02CFE000030BF72B6704762B60F
:10023000704780F30888704709488047094800479D
:10024000FEE7FEE7FEE7FEE7FEE7FEE7FEE7FEE786
:10025000FEE7FEE704480549034A054B70470000E6
:10026000BD0B0008890100087800002078040020F8
:1002700078000020704700000FB4044910B503AAAD
:10028000029800F009F810BC5DF814FB0000002093
:100290007047704770477047074B70B50D467B44F9
:1002A00000F011F80446284600F020F810B14FF095
:1002B000FF3070BD204670BDDF0B000001694A1C95
:1002C00002610878704700B58FB0CDE90131002197
:1002D000059105497944CDE903101146684600F0BF
:1002E0002EF80FB000BD0000E5FFFFFF007B00F01F
:1002F00080007047754600F03DF8AE46050069463F
:10030000534620F00700854618B020B5FFF7A2FF3E
:10031000BDE820404FF000064FF000074FF0000806
:100320004FF0000B21F00701AC46ACE8C009ACE887
:10033000C009ACE8C009ACE8C0098D4670472DE99A
:10034000F04106460024D6E90170F5688046304643
:1003500003E04146B847641C3046A8470028F8D15E
:100360002046BDE8F0810446AFF300802046FFF749
:1003700054FF00000048704718000020FEE7704757
:1003800010B500F0BBF8002000F030F8124800F083
:1003900045FB022100F038F8104800F03FFB022135
:1003A00000F032F80E4800F039FB022100F02CF882
:1003B0000C4800F033FB022100F026F80A4800F058
:1003C0002DFB022100F020F8012000F00FF8BDE81D
:1003D000104000F06DB800000040000800800008E8
:1003E00000C00008000001080000020805490028BC
:1003F000086802D040F4806001E020F4806008606A
:1004000070470000003C024070B50646002529B147
:10041000012927D0022928D04FF4407500F080F838
:1004200009281ED1124C206820F4407020602068FA
:1004300028432060206820F0F8002060206846F003
:10044000020108432060206840F48030206000F002
:1004500067F8216821F002012160216821F0F8018C
:10046000216070BD4FF48075D8E74FF40075D5E773
:10047000103C02400D4909200A68D20301D5012031
:1004800070470A68D20601D5062070470A68D2056F
:1004900001D5022070470A6812F0EF0F01D0072043
:1004A000704709688907FBD5082070470C3C02405B
:1004B0000248016841F0004101607047103C024071
:1004C00070B50D46064600F02BF8092813D10A4CEA
:1004D000206820F440702060206840F400702060A4
:1004E000206840F001002060356000F019F82168B4
:1004F00021F00101216070BD103C024005480068F8
:10050000002805DA034804490C38016003490160FA
:1005100070470000103C024023016745AB89EFCDD6
:1005200008B509208DF80000FFF7A4FF8DF8000042
:100530009DF800000128F7D09DF8000008BD0000DC
:100540001CB50121084600F015F94FF40040009059
:1005500001208DF8040000218DF8061003218DF88C
:1005600005108DF807006946084800F067F800F0AC
:10057000ABF90748018821F038010180018841F07A
:1005800008010180012100F017FA1CBD00000240A3
:10059000003001402DE9F041DFF83C800024154691
:1005A0000E460746C8F8BC42032000F0EBF9380AB3
:1005B00000F0E8F9F8B200F0E5F905E0FF2000F0FE
:1005C000E1F93055641CA4B2AC42F7D30121C8F85C
:1005D000BC12BDE8F0810000000040422DE9F04768
:1005E000154E0024154688460746A146C6F8BC426B
:1005F000062006F52F7600F0C5F94FF0010AC6F87F
:1006000000A0C6F800900220A6F52F7600F0BAF9F7
:10061000380A00F0B7F9F8B200F0B4F905E018F8BC
:10062000040000F0AFF9641CA4B2AC42F7D3C6F8E2
:10063000BCA2BDE8F087000000004042F0B50022F7
:1006400001274FF0030C0B6807FA02F52B40AB4271
:100650002CD1066853000CFA03F4A64306600E7909
:10066000D0F800E09E4046EA0E0606600E79012EA4
:1006700001D0022E12D18668A64386604E79D0F84A
:1006800008E09E4046EA0E0686604668AE43466035
:1006900045688E799640B6B235434560C568A54336
:1006A000C560CC799C40C3681C43C460521C102AAE
:1006B000C9D3F0BD4B07DB0E9A40C90810B500EB5B
:1006C0008100016A0F249C40A1430162016A114329
:1006D000016210BD1CB50446082269460020FFF7E0
:1006E00059FF6CB1BDF80000A0F5B4415A394FF084
:1006F000000006D1ADF8000008226946FFF76EFF42
:1007000001981CBDFEE7FEE77047000030B50F23DF
:10071000C27801780125FAB1144A126801F1E0218A
:1007200002F4E062C2F5E062C2F30722C2F10404FF
:10073000D3404278A24084781C401443220181F8BF
:100740000024007800F01F018D404009800000F176
:10075000E020C0F8005130BD01F01F00854048097D
:10076000800000F1E020C0F8805130BD0CED00E0C9
:1007700070470000044A0029116801D0014300E0DD
:10078000814311607047000030380240044A00295C
:10079000116801D0014300E08143116070470000FF
:1007A00020380240044A0029116801D0014300E0CA
:1007B000814311607047000044380240044A002918
:1007C000116801D0014300E08143116070470000CF
:1007D0002438024070B5204B1968204C11F00C01F0
:1007E00004D06610042903D0082903D004601BE05C
:1007F000066019E0184A121F1168C1F3805511688C
:1008000001F03F0115B1B6FBF1F101E0B4FBF1F1EC
:1008100014681268C4F388146143C2F30142521C85
:100820005200B1FBF2F1016019680F2202EA1111C6
:100830000B4A545C0168E14041601C68072505EAE9
:100840009424145D21FA04F484601B6805EA533390
:10085000D25CD140C16070BD083802400024F40071
:100860000400002070B514000D46064611D009A002
:10087000FFF702FDFFF784FD0AA0FFF7FDFC22460B
:100880002946304600F01AF9BDE8704009A0FFF78C
:10089000F3BC70BD457261736520636F64650D0ABA
:1008A00000000000577269746520636F64650D0A6B
:1008B00000000000577269746520636F646520450D
:1008C0006E640D0A000000002DE9F04387B001219D
:1008D0000220FFF74FFF4FF4805901214846FFF7F0
:1008E00061FF02278DF8187000248DF81A4003204C
:1008F0008DF81900DFF884803826012505968DF8DB
:100900001B5005A94046FFF799FE052203214046EA
:10091000FFF7D0FE052204214046FFF7CBFE05225B
:1009200011464046FFF7C6FE01214846FFF746FF45
:1009300000214846FFF742FFADF800404FF48270B7
:10094000ADF80200ADF808506802ADF80C60ADF8E3
:100950000440ADF80A00ADF80E400720084CADF891
:100960001000ADF806706946204600F03AF8012103
:10097000204600F021F807B0BDE8F08300040240F3
:100980000030014070B50B4C05460221204600F0B6
:100990001DF80028F9D02946204600F020F8012152
:1009A000204600F013F80028F9D0204600F015F892
:1009B000C0B270BD003001400029018802D041F072
:1009C000400101E021F04001018070470246002013
:1009D00012890A4200D001207047808970478181C6
:1009E000704730B502884C8802F441530A88CD889C
:1009F00022438C882C4322430C8922434C89224376
:100A00008C892243CC8922431A430280828B22F4B0
:100A100000628283098A018230BD00001C4988423D
:100A200001D2002070471B49884201D2082070473C
:100A30001949884201D2102070471849884201D2D2
:100A4000182070471649884201D220207047154966
:100A5000884201D2282070471349884201D23020B1
:100A600070471249884201D23820704710498842A5
:100A700001D2402070470F49884201D24820704778
:100A80000D49884201D2502070475820704700001D
:100A9000004000080080000800C0000800000108B5
:100AA0000000020800000408000006080000080812
:100AB00000000A0800000C0800000E082DE9F041B3
:100AC00005460E46900709D0012000EB9207FFF77C
:100AD00015FD0020FFF78AFC002409E09708F6E7DF
:100AE00029683046FFF7ECFC641C2D1DA4B2361DAE
:100AF000BC42F5D30120FFF779FCBDE8F041FFF7D8
:100B0000D7BC70470CB500222749009201920868B3
:100B100040F4803008604FF4A043086800F40030CF
:100B200001900098401C0090019810B900989842DC
:100B3000F3D10868800334D5012001901A48403071
:100B4000026842F0805202601848026842F4404253
:100B500002601548083002680260026842F40042F0
:100B60000260026842F4A0520260031F104A1A6039
:100B70000A6842F080720A600A689201FCD50D4949
:100B800040F205720A60016821F00301016001680A
:100B900041F0020101600168C1F381010229FAD12B
:100BA0000CBD01920CBD00000038024000700040F6
:100BB00008544007003C024070470000124810B53E
:100BC000016841F4700101601048016841F00101C1
:100BD00001600E4A00210832116002680C4B1A4075
:100BE0000260031D0B4A1A60026822F48022026030
:100BF00006480C300160FFF785FF03494FF00060A5
:100C00008039086010BD000088ED00E00038024027
:100C1000FFFFF6FE10300024C94301807047002911
:100C2000818902D041F4005101E021F40051818119
:100C300070470000224910B5884206D101211020DA
:100C4000FFF7BCFD0021102020E01E49884202D1A0
:100C500001214C0429E01C49884202D101218C0465
:100C600023E01A49884202D10121CC041DE0184931
:100C7000884202D101210C0517E01649884209D1AA
:100C800001212020FFF79AFD00212020BDE810401F
:100C9000FFF794BD1049884202D101218C0704E07E
:100CA0000E4988420AD1012144052046FFF76EFD16
:100CB0002046BDE810400021FFF768BD10BD0000D0
:100CC000001001400044004000480040004C00403B
:100CD000005000400014014000780040007C0040BB
:100CE00010B5C1F3421301F01F040121A140012BF3
:100CF00007D0022B07D01430002A026805D00A431F
:100D000004E00C30F8E71030F6E78A43026010BDCB
:100D10007FB50446008A0D46C98820F4405001433F
:100D20002182A08941F20C618843A9882A89114354
:100D30006A8902431143A181A08A20F44071A889E5
:100D40000843A0826846FFF745FD1A48844202D056
:100D50001948844201D1039800E00298A18909044E
:100D600000EBC00101EB0010296801D5490000E04B
:100D70008900B0FBF1F06422B0FBF2F109010B092C
:100D80006FF018056B4300EB8300A3891D044FF03F
:100D9000320306D503EBC000B0FBF2F000F0070011
:100DA00005E003EB0010B0FBF2F000F00F00084389
:100DB00020817FBD00100140001401402DE9F04169
:100DC0002C4D804688B02846FFF734FF01210846A5
:100DD000FFF7D0FC01211020FFF7E4FC264E07228C
:100DE00009213046FFF766FC07220A213046FFF74B
:100DF00061FC02218DF814108DF815104FF4C060BD
:100E0000002404908DF8164001278DF8177004A96E
:100E10003046FFF713FCADF808400C20ADF8044055
:100E2000ADF80A00CDF80080ADF80640ADF80C40F2
:100E300069462846FFF76CFF01212846FFF7EFFEC1
:100E400040212846FFF7E8FE012240F225512846BE
:100E5000FFF746FF25208DF8180003208DF81900B4
:100E60008DF81A008DF81B7006A8FFF74FFC08B02C
:100E7000BDE8F0810010014000000240FEE770472D
:100E800003490A885206FCD5C2B28A807047000026
:100E90000010014010B50168074A1140B1F1005F30
:100EA00009D14168054C21600068FFF7C2F920684C
:100EB000BDE81040004710BD0000FE2F14000020C8
:100EC00010B5FFF73DFB4FF4E130FFF777FF01204E
:100ED000FFF700FC074C024621460748FFF7C2FC1B
:100EE00006A0FFF7C9F9FFF7A0F92046FFF7D2FFE8
:100EF000002010BD00400008000004084A756D7015
:100F000020746F20417070200D0A00004FF0407077
:100F1000E1EE100A70470000380F000800000020C2
:100F200018000000C4010008500F0008180000203D
:100F300060040000E0010008000000000000000064
:100F4000010203040102030406070809000000006F
:040000050800018965
:00000001FF
